:020000040000fa
:080000000002040000000000f2
:020000040000fa
:04000800b40300003d
:020000040000fa
:04000c00b403000039
:020000040000fa
:04001000b403000035
:020000040000fa
:04001400b403000031
:020000040000fa
:04001800b40300002d
:020000040000fa
:04001c00b403000029
:020000040000fa
:04002000b403000025
:020000040000fa
:04002400b403000021
:020000040000fa
:04002800b40300001d
:020000040000fa
:04002c00b403000019
:020000040000fa
:04003000b403000015
:020000040000fa
:04003400b403000011
:020000040000fa
:04003800b40300000d
:020000040000fa
:04003c00b403000009
:020000040000fa
:04004000b403000005
:020000040000fa
:04004400b403000001
:020000040000fa
:04004800b4030000fd
:020000040000fa
:04004c00b4030000f9
:020000040000fa
:04005000b4030000f5
:020000040000fa
:04005400b4030000f1
:020000040000fa
:04005800b4030000ed
:020000040000fa
:04005c00b4030000e9
:020000040000fa
:04006000b4030000e5
:020000040000fa
:04006400b4030000e1
:020000040000fa
:04006800b4030000dd
:020000040000fa
:04006c00b4030000d9
:020000040000fa
:04007000b4030000d5
:020000040000fa
:04007400b4030000d1
:020000040000fa
:04007800b4030000cd
:020000040000fa
:04007c00b4030000c9
:020000040000fa
:04008000b4030000c5
:020000040000fa
:04008400b4030000c1
:020000040000fa
:04008800b4030000bd
:020000040000fa
:04008c00b4030000b9
:020000040000fa
:04009000b4030000b5
:020000040000fa
:04009400b4030000b1
:020000040000fa
:04009800b4030000ad
:020000040000fa
:04009c00b4030000a9
:020000040000fa
:0400a000b4030000a5
:020000040000fa
:0400a400b4030000a1
:020000040000fa
:0400a800b40300009d
:020000040000fa
:0400ac00b403000099
:020000040000fa
:0400b000b403000095
:020000040000fa
:0400b400b403000091
:020000040000fa
:0400b800b40300008d
:020000040000fa
:0400bc00b403000089
:020000040000fa
:0400c000b403000085
:020000040000fa
:0400c400b403000081
:020000040000fa
:0400c800b40300007d
:020000040000fa
:0400cc00b403000079
:020000040000fa
:0400d000b403000075
:020000040000fa
:0400d400b403000071
:020000040000fa
:0400d800b40300006d
:020000040000fa
:0400dc00b403000069
:020000040000fa
:0400e000b403000065
:020000040000fa
:0400e400b403000061
:020000040000fa
:0400e800b40300005d
:020000040000fa
:0400ec00b403000059
:020000040000fa
:0400f000b403000055
:020000040000fa
:0400f400b403000051
:020000040000fa
:0400f800b40300004d
:020000040000fa
:0400fc00b403000049
:020000040000fa
:04010000b403000044
:020000040000fa
:04010400b403000040
:020000040000fa
:04010800b40300003c
:020000040000fa
:04010c00b403000038
:020000040000fa
:04011000b403000034
:020000040000fa
:04011400b403000030
:020000040000fa
:04011800b40300002c
:020000040000fa
:04011c00b403000028
:020000040000fa
:04012000b403000024
:020000040000fa
:04012400b403000020
:020000040000fa
:04012800b40300001c
:020000040000fa
:04012c005c03000070
:020000040000fa
:040130008803000040
:020000040000fa
:04013400b403000010
:020000040000fa
:04013800b40300000c
:020000040000fa
:04013c00b403000008
:020000040000fa
:04014000b403000004
:020000040000fa
:04014400b403000000
:020000040000fa
:04014800b4030000fc
:020000040000fa
:04014c00b4030000f8
:020000040000fa
:04015000b4030000f4
:020000040000fa
:04015400b4030000f0
:020000040000fa
:04015800b4030000ec
:020000040000fa
:04015c00b4030000e8
:020000040000fa
:04016000b4030000e4
:020000040000fa
:04016400b4030000e0
:020000040000fa
:04020800b40300003b
:020000040000fa
:04020c00b403000037
:020000040000fa
:04021000b403000033
:020000040000fa
:04021400b40300002f
:020000040000fa
:04021800b40300002b
:020000040000fa
:04021c00b403000027
:020000040000fa
:04022000b403000023
:020000040000fa
:04022400b40300001f
:020000040000fa
:04022800b40300001b
:020000040000fa
:04022c00b403000017
:020000040000fa
:04023000b403000013
:020000040000fa
:04023400b40300000f
:020000040000fa
:04023800b40300000b
:020000040000fa
:04023c00b403000007
:020000040000fa
:04024000b403000003
:020000040000fa
:04024400b4030000ff
:020000040000fa
:04024800b4030000fb
:020000040000fa
:04024c00b4030000f7
:020000040000fa
:04025000b4030000f3
:020000040000fa
:04025400b4030000ef
:020000040000fa
:04025800b4030000eb
:020000040000fa
:04025c00b4030000e7
:020000040000fa
:04026000b4030000e3
:020000040000fa
:04026400b4030000df
:020000040000fa
:04026800b4030000db
:020000040000fa
:04026c00b4030000d7
:020000040000fa
:04027000b4030000d3
:020000040000fa
:04027400b4030000cf
:020000040000fa
:04027800b4030000cb
:020000040000fa
:04027c00b4030000c7
:020000040000fa
:04028000b4030000c3
:020000040000fa
:04028400b4030000bf
:020000040000fa
:04028800b4030000bb
:020000040000fa
:04028c00b4030000b7
:020000040000fa
:04029000b4030000b3
:020000040000fa
:04029400b4030000af
:020000040000fa
:04029800b4030000ab
:020000040000fa
:04029c00b4030000a7
:020000040000fa
:0402a000b4030000a3
:020000040000fa
:0402a400b40300009f
:020000040000fa
:0402a800b40300009b
:020000040000fa
:0402ac00b403000097
:020000040000fa
:0402b000b403000093
:020000040000fa
:0402b400b40300008f
:020000040000fa
:0402b800b40300008b
:020000040000fa
:0402bc00b403000087
:020000040000fa
:0402c000b403000083
:020000040000fa
:0402c400b40300007f
:020000040000fa
:0402c800b40300007b
:020000040000fa
:0402cc00b403000077
:020000040000fa
:0402d000b403000073
:020000040000fa
:0402d400b40300006f
:020000040000fa
:0402d800b40300006b
:020000040000fa
:0402dc00b403000067
:020000040000fa
:0402e000b403000063
:020000040000fa
:0402e400b40300005f
:020000040000fa
:0402e800b40300005b
:020000040000fa
:0402ec00b403000057
:020000040000fa
:0402f000b403000053
:020000040000fa
:0402f400b40300004f
:020000040000fa
:0402f800b40300004b
:020000040000fa
:0402fc00b403000047
:020000040000fa
:04030000b403000042
:020000040000fa
:04030400b40300003e
:020000040000fa
:04030800b40300003a
:020000040000fa
:04030c00b403000036
:020000040000fa
:04031000b403000032
:020000040000fa
:04031400b40300002e
:020000040000fa
:04031800b40300002a
:020000040000fa
:04031c00b403000026
:020000040000fa
:04032000b403000022
:020000040000fa
:04032400b40300001e
:020000040000fa
:04032800b40300001a
:020000040000fa
:04032c005c0300006e
:020000040000fa
:04033000880300003e
:020000040000fa
:04033400b40300000e
:020000040000fa
:04033800b40300000a
:020000040000fa
:04033c00b403000006
:020000040000fa
:04034000b403000002
:020000040000fa
:04034400b4030000fe
:020000040000fa
:04034800b4030000fa
:020000040000fa
:04034c00b4030000f6
:020000040000fa
:04035000b4030000f2
:020000040000fa
:04035400b4030000ee
:020000040000fa
:04035800b4030000ea
:020000040000fa
:04035c00b4030000e6
:020000040000fa
:04036000b4030000e2
:020000040000fa
:04036400b4030000de
:020000040000fa
:100400000f9520000e7f24000e01880000000000e0
:10041000000020000000e000020032000001200087
:100420002002880014000700f30007000000e0002d
:1004300003003a00c0092300010020000200370039
:100440000000200001002000810f70000100320038
:1004500014000700000020000000e000020032004d
:100460000000020000000000ea300200000000006e
:100470000040da000000fe004440a9000000200017
:100480000000e0000300320000002000a00188000e
:100490004440a800000006008a1f78008b1f7800e7
:1004a0000000060091018800800478000000eb0045
:1004b0001a003700e284440032a0b4009905ba0063
:1004c000e284440032a0b4009906ba00e2844400f9
:1004d00032a0b4000006eb00476fde00fd07b2005b
:1004e000636ce10003003a00ebff07000000eb0043
:1004f0000a003700606ce10004003a00005deb0088
:100500008b05e900fdff3e00040037006168e10053
:10051000010032000086eb000b00070019c7ba008b
:100520001905ba000e04e00003003a000a00e000da
:10053000e0ff3a0000000600fe07b2009e018800be
:100540008a047800f5ff3700395dba008b05e900b1
:100550000c003200295dba008b05e900080032006a
:100560000c00e00003003a00e284440032a0b40032
:10057000f5ff370019ddba008b05e900faff3a00f4
:100580008904e800e184440032a0b40000000600c1
:1005900020160400000000002e16040000000000d9
:1005a0003c160400000000004a1604000000000091
:1005b00082160400000000008c16040000000000f9
:1005c0009a16040000000000b216040000000000ab
:1005d000bc16040000000000c41604000000000067
:1005e000ce16040000000000da160400000000002f
:1005f00072170400000000008418040000000000ce
:100600008c1a040000000000961c0400000000008a
:10061000a81c040000000000ac2a04000000000038
:10062000d42a040000000000fc2a0400000000009e
:10063000242b0400000000004c2b040000000000ec
:10064000742b0400000000009c2b0400000000003c
:10065000c42b040000000000f02b04000000000088
:100660001e2c0400000000004c2c040000000000c0
:100670007a2c040000000000a82c040000000000f8
:10068000d62c040000000000ee2d04000000000045
:10069000762e040000000000542f0400000000002b
:1006a0008c2d040000000000be2d0400000000009e
:1006b0000000040000000000801f78003400f800f3
:1006c00000002000a00188000000fa008c20a90092
:1006d00010118000640060000000e00007003a0094
:1006e00010118000620060000000e0000400320091
:1006f0002222a900000000000100370000000000d5
:100700000080fa003400f9004f0078000040060035
:10071000801f78003400f80000002000a00188004d
:100720000000fa008c40a900901180006400600075
:100730000000e00007003a009011800062006000b5
:100740000000e000040032003222a9000000000096
:1007500001003700000000000080fa003400f900ba
:100760004f007800004006000040da000000fe0064
:10077000889fbe0080047800304480000000e000c4
:1007800005003a000000eb000e0007000084eb00bb
:100790000000e00008003500384480000900e00057
:1007a0000500320009004400060007000000e000d8
:1007b00001003d000084eb00080078004f04be00fb
:1007c00000000600800078000100e00003003a000d
:1007d0000011210030448800000005000080eb007b
:1007e000821d2100828f500002003e0031448800ab
:1007f0000000eb00000006000000050014002000cf
:100800008b033700f4ff2f00890337000001be007f
:100810001d0007000470a70003f0a10003f8a30067
:1008200013003a006509b1001000320009003500dc
:100830006928e100020035000100280000000500e1
:1008400000004000818048008502e900fcff3a007a
:1008500000000600f88f4200050035008100d1003d
:100860000080d3008502e800fcff3a00000006008b
:100870008000eb00000005006011b800870337001e
:10088000040020006a033700c70ade00f107b20047
:10089000f50fb20008003200e1cf42000200320042
:1008a0000170a00024000500810f700001003200db
:1008b0000408050044000500810f700002003a00a2
:1008c000140005008502e9000000400081c04800d6
:1008d000fcff3b000170a0002400050007f8270082
:1008e000078361000638e10004003a00f7072000a2
:1008f000878361008703710001003a0003f0a200c2
:10090000889fbe008a9fbe008c9fbe00470ade0003
:100910000480a100c71ade000580a100070028009e
:100920000785600087856100f70f20000720e10040
:100930009e0032000728e1009c003200010678008a
:100940000400e000b4003200f70720008780600058
:100950000170a0000500e000c0003200f707200091
:10096000878161000370a000050652000f003a0065
:100970000b50e1000b0032000308e10002003a00d6
:100980000200e1007e00320002045000838458001f
:10099000040031000001fd008101fd008402fd0022
:1009a0008a05fd006044b800210037000520e10001
:1009b00005003d000001fd008101fd008402fd00f5
:1009c0008a05fd00050652007a60e1000500350049
:1009d0000170a1004722dd00848070008a807000d1
:1009e000630037006044b800ef02660007ff2f0085
:1009f000070666000500e00006003400f0831200e0
:100a00008714dd000511de00071bdd000601710003
:100a10008519de007060e1000500350009047800ea
:100a200082047800030178008001eb007006560014
:100a30000b50e10003003a000200400083804800b0
:100a40000400370060041400e0841c000200580019
:100a5000838058000188a300060032008100d10085
:100a60000080d3008984d3000884d3000402e80006
:100a7000270037000178a30025003a000100e000bc
:100a8000030032008186cf00698656000a003700d5
:100a90008c0020000000e00004003a00090078000b
:100aa000880478000004eb00700252008086cf00ba
:100ab0000d0646000c06e9007060e10006003500f6
:100ac0008000780009007800880478000004eb00ba
:100ad00070065600700252000c00e0000c0034005a
:100ae0008c08dd00f00316000703de00868070002e
:100af0000c00dd00074bde00060070008c4cdd00b2
:100b00000743de00868474000c44dd000c025200b2
:100b10006120e1002000350061016000070028002d
:100b200087816400f7ff2700878364000703740050
:100b30000300e0000600320082037300040032006c
:100b40000000e800e08048000188a3000e003a00a1
:100b5000f70f20000720e1004a003d000170a100ce
:100b60004722dd00810072008a8070000000be0014
:100b70004f06be004f05be004f04be000000060039
:100b80006000b800faff37008100d1000080d30078
:100b90000402e800eeff37000401780089017400c8
:100ba000a10107008a807000f1ff3700f7010700fc
:100bb000070278000001fd008101fd00f30107003c
:100bc00087027800850372000778a30004003200d2
:100bd0000001fd008101fd0006020700e4ff37006f
:100be000850362000768a300080032000b50e10093
:100bf00003003200f0ff2f00f1ff2700dcff370079
:100c00000001fd008101fd00d9ff37000468a30049
:100c1000d7ff3200faff3700f8ff27008883600013
:100c20000b003a000000e00009003a008303640072
:100c300082837300020032000200be00ccff370046
:100c40000b50e100ceff3a000200be00c8ff3700a3
:100c500014002000810064003eff3700f8ff2700e9
:100c60008883610004003a000200e00002003a00bc
:100c70008c007800beff370015002000830164005f
:100c800039ff370001f827000000200081007500bf
:100c9000b7ff3700889fbe008a9fbe008c9fbe00b2
:100ca0001b0020000202be00058668000600280026
:100cb000060666004709de00f20fb200820032002d
:100cc0000243e80080003200c729de00f30fb200c3
:100cd0007d0032000343e8007b003200f107b200e0
:100ce0000170a000f507b2000570a000c708dd0084
:100cf0004903de00868070004700dd00c72add0062
:100d00004923de00868272004722dd000305510080
:100d100004035000858358000300310000004000a8
:100d2000818048000a05e9008c1f78008a9fbe0078
:100d300004005000858058000402420085824a0069
:100d400000004000818048000005eb000004be0068
:100d50006033b8000406be000d48e10056003100c3
:100d6000110009004dccd8000c01b8000d02b800ec
:100d70008481410060824a008283530003045c0046
:100d800084845c0060055d000a00e00025003a00f4
:100d9000800578000d40e1004900310088007800ae
:100da00007007800110009004d88d8000c01b80038
:100db0000d02b8008481410060824a006003110086
:100dc00083835b0004045c00e0845c000900e000b5
:100dd00021003a004f01be000300e0002b0032006a
:100de000e3016000070673008c817100010032008e
:100df000640070004200de004e5edd000c007000fa
:100e0000c258de0001e0a00083010700cf01780096
:100e1000818071004f06be004f05be004f04be002a
:100e2000000006008c8343000d044c00e0844c005d
:100e300060054d000000e9000a00e000d4ff320028
:100e40008c8343000d044c00e0844c0060054d0091
:100e50000000e900ceff37000c0343008d834b00f8
:100e600060044c00e0844c000000e9000900e00050
:100e7000d8ff32000c0343008d834b0060044c000c
:100e8000e0844c000000e900d2ff37004200de00a1
:100e90004e5edd000c007000c258de0001e0a000d4
:100ea000cf0178000300e000daff3200600010009c
:100eb000e0801800d7ff3700f0ff2f00aaff3700af
:100ec000f0ff2f00b9ff37000404be002f01070018
:100ed000870678000004fd008104fd002b01070057
:100ee000078366000678a300030032000960a700ac
:100ef0000800be002c0037000d78a300020032006d
:100f00000800be00280037000778a30026003a003a
:100f100001f0a10009f0a1000668a300030032005f
:100f2000f1ff2700f0ff2f00baff37000d68a30084
:100f3000030032000800be008c807000b5ff37004f
:100f40000768a30007003a000648a3000300320028
:100f5000f1ff2700f0ff2f00aeff37000d48a30080
:100f6000030032006000b8008c807000a9ff3700d9
:100f70000748a3000400320001f827000000200009
:100f80008c807000a3ff3700760107000004fd008d
:100f90008104fd0002057800720107000802be000e
:100fa0008a01780059ff37000160a000120220007a
:100fb0006240880097ff37000100e0001200320015
:100fc0000500e00010003200889fbe008a9fbe002e
:100fd0008c9fbe000006eb0001f8a3000300320066
:100fe00060001000e08018000cf0a00005f8a300dd
:100ff0000300320060021200e0821a000cf0a2002e
:101000008005eb0041ff37006000b80002000500da
:10101000038368000700280007036300470ade0017
:101020000480a100c71ade000580a100f70f200090
:101030000720e100420032000728e10040003200b2
:10104000889fbe008a9fbe008c1f7800f107b20007
:10105000f307b2000400e000640032000170a00059
:101060000500e000680032000370a0008505420022
:10107000eb07b1000204b8000302b8008484440006
:1010800060854a00020ab800848444000a854a0048
:10109000030ab80004054500040033000804d0002a
:1010a0008984d2000a85d2008b05e9006158e100ed
:1010b0003d003500021020000901610003082000f6
:1010c00089816100f7072000878364000886730028
:1010d000c84cde00c853dd00878474004855de002c
:1010e0000300e000060032008203760004003200b4
:1010f0008904e80060054d000a88a3000c003a004e
:10110000f70f20000758e10044003d000a70a100dd
:10111000c75ddd000a8575008a007300090078004c
:101120004f0678004f05be004f04be0000000600c9
:101130000a05d1008984d3008b05e800f0ff370051
:10114000881f7800060478009000070007027800e6
:101150000001fd008101fd008c000700870278007e
:10116000850372000778a300050032000001fd002e
:101170008101fd009f0007004f0478000000060079
:10118000850372000748a30003003200f0ff2f0020
:10119000f1ff2700f8ff37000000200001f82700ca
:1011a00088807000f4ff3700880178004848dd002f
:1011b000808171004848de00c850dd0001007000e9
:1011c000c850de00060478000b0178001600070006
:1011d00088807000d2ff37000500e0000500320073
:1011e000170020003a0007009dff370081037000c0
:1011f000f9ff3a00860078004f0678004f05be00e0
:101200004f04be000000050083037100f9ff3200a7
:10121000270020002e00070094ff370001f8270068
:1012200086807000f4ff37000100e00026003200e5
:10123000610111007810e10023003c006022b80039
:101240007010e10004003500800278000100780091
:101250008000eb00700151000200e0000900340042
:1012600070031100062add00822ade008603dd00fd
:10127000878272000200de00860bdd00070070002e
:101280008208de0084817100f4ff2700048262007e
:101290008481710004002800848262006102600081
:1012a00005f0a6000000060004827100070032006d
:1012b0000000e800e0804800000006000002be00d8
:1012c0006000b800efff37006000b80000000600c3
:1012d000889fbe000004eb006138e10016003a0070
:1012e0000100e00008003a00c800de004800dd0010
:1012f000880020000100e00003003a00c800de0082
:101300004800dd00680444008184cf00e984540073
:10131000060034008908dd00f08314008703de0036
:10132000878070000900dd00090444006102140098
:101330004f04be00000006000300e00008003a0071
:10134000c811de004811dd00880020000300e00025
:1013500003003a00c811de004811dd0068044400b3
:101360008384cf00e9845400060034008919dd002d
:10137000f08314008713de00878171000911dd00fe
:1013800009044400e1021400e9ff370027002000af
:1013900001f0a70017002000470bde00f60fb20097
:1013a000040032000643e8000a0032004702b3009e
:1013b0000000060001037800f607b2000603700083
:1013c00002003a000703b300000006008702b300e2
:1013d0000000060001037800f607b2000603700063
:1013e000020032000770a000000006000760a000a5
:1013f000000006000478a300040032000578a30072
:10140000030032000168a30001003a000200be00a0
:101410000160a0000000060081017000270032007a
:101420008002eb0001f8a30003003200600010000e
:10143000e080180015002000f4072000020242009e
:1014400020003400f703200087036000060420001a
:101450000003630002082000000161004700de0075
:10146000c909dd0000807100c708de000600e00049
:101470000800320087037100060032001000b0003f
:101480000180b0000188a30002003200c108de0024
:101490000402e800f107b200f30f20000320e1008e
:1014a00003003d004722dd00810072002900370063
:1014b00001f827000000eb00260037006000b800ac
:1014c00000000600680212007f20e10002003400e4
:1014d0006000b8001f0037006011b8007020e10004
:1014e0000400350080017800010078008000eb00e6
:1014f000700252000400e00009003400f003120002
:101500000719dd008419de000703dd008681710004
:101510000400de00070bdd00060070008408de001a
:10152000f7ff27008383630087037100060028000c
:1015300003036300070032000700e00003003a00e5
:101540006101600002817300020032001000b000ef
:101550000180b0000500a6000000060001f0a00018
:10156000000006004f0ade004709de00f107b20066
:10157000f20fb2000b003200f207b1000170a000c0
:10158000c708dd00c901de00838070004700dd0070
:101590000400a6000000060060001000e0801800b3
:1015a00000000600810f700001003a0000000600f4
:1015b0008182cf000500e00010003e008082cf0055
:1015c000ee8242007028e1000400390007003e006e
:1015d000800078000000eb000e00370070831200de
:1015e0008600de000500dd000a003700708352002f
:1015f0008600dd000000eb0006003700e2825200aa
:101600008508dd00708312000603de00868070000e
:101610000500dd007507b0000501ea000400a60022
:101620000000060060001000e080180000000600c6
:10163000889fbe008a9fbe00841f78006c00070050
:101640004f00780011003300f0ff2f00838f6c00f3
:1016500006003b00040565000a00a70008003700eb
:1016600009f0a6001000200008003700820f540087
:10167000838f5c00030039001000200001003e0051
:101680000000200009f0a7000000ea004f05be009e
:101690004f04be000000e00000000600889fbe006e
:1016a0008a9fbe00008270000402710004827100f3
:1016b000260032000004be000200be006011b80027
:1016c0006b092000950220000182cf000a0039003a
:1016d0000541b1000082cf00070039000541b1008b
:1016e0000982cf00040039000541b1000882cf0013
:1016f000010039000541b1000542520012003200dc
:101700000a003b0082817100610164008100d10008
:101710000080d3008984d3000884d3008b05e800bf
:101720000442e800f7ff3a000700370008044400cd
:1017300089844c0000004800818048008b05e90046
:101740000442e900f9ff3a00030007004f05be001c
:101750004f04be000000060081002000618055009b
:101760000b003d000b00200061fe2f000100e10096
:101770001d00340082817100610164008904d10080
:101780000884d3000000e800faff3a00710020004e
:101790006100640003007000020060000900320074
:1017a00061044400e0844c000988a5000500320073
:1017b0008b05e8006808e10002003a008904d100c6
:1017c0000884d300f20f20000258e10005003d001c
:1017d000c75ddd00f907b200898075000800780058
:1017e000000006000bf827008b00780000000500c1
:1017f0000004be0024fc07000003be000405be0078
:101800000200be0020fc0700844f750000000600a7
:101810004f02b000889fbe008a9fbe008c9fbe0012
:101820008e1f78000005be000204be00b2af9f000c
:10183000c3af9f00b2b79f00c3b79f00cfae970062
:101840000df0a10002067800e00f5600e08f5e0068
:10185000c0033200faaf9f008bb79f00000020004a
:1018600001f82300800f5500818f5d00b90332001d
:101870008fb2970005f0a1007faa970094b79f0050
:10188000a5b79f000000200001f82700800f52003c
:10189000818f5a0003003c00800f5600818f5e004c
:1018a000040034000a01be000800be0014fc07005a
:1018b000af0337006033b8007fa997008fb197005e
:1018c000e00f5100e08f590029003d002600200064
:1018d00007002000f0ff2f00f1b72400800f560012
:1018e000818f5e0022003c006033b800f0ff2f00c3
:1018f000f1f72300800f5600818f5e003300340023
:1019000047e8de00cfe8de00f007b1000180b1005b
:10191000770110000c00be00820178008301e9000d
:10192000030033008180d1000080d300fbff37002b
:101930000003be00020778000e07e9000300330031
:101940000603430087834b00fbff37000601be0000
:101950006033b8008c0f51008d8f59001b003a0086
:101960006103600062031300e0831b00170037006f
:101970000000200001f82700800f5600818f5e00d4
:1019800012003a000000200001f82300800f5200ee
:10199000818f5a006f033200060034003fb0970079
:1019a000cfb09700e00f5000e08f580071033d006a
:1019b0006b0337003fb19700cfb19700e00f5100a4
:1019c000e08f590066033d006900370000002000e9
:1019d00001f82300800f5600818f5e0009003a0055
:1019e0003fb29700cfb29700e00f5200e08f5a004d
:1019f0005d033d000a01be000000200001f8230045
:101a00005500370000002000010024003fb197007e
:101a1000cfb19700800f5100818f590003003a0029
:101a20000a01be000a00be00480337000000200083
:101a300001f023003fb19700cfb19700800f510014
:101a4000818f590008003a007fa897008fb0970057
:101a5000e00f5000e08f5800030035000a00be0080
:101a60007a030700420337000a00be00f4b79f0064
:101a700085bf9f00d6b79f00e7b79f0044030700cc
:101a80000200200003f827007fb297008fba97006a
:101a90005fb39700efb39700820f5200838f5a0015
:101aa00008003200e00f5200e08f5a0005003200bb
:101ab0000200200003f82300820f5200838f5a0097
:101ac0002d003a003fb19700cfb19700e00f5100d1
:101ad000e08f59000c003d000001be000000200016
:101ae00001f82300f4b79f0085bf9f00d6b79f0081
:101af000e7b79f0067fc07007fb297008fba970097
:101b00005fb39700efb397007fa997008fb197005d
:101b1000e00f5100e08f590015033d000200200046
:101b200003082c000402410085824900040273006e
:101b300085827300e00f5200e08f5a0008003a00df
:101b400012022000224488000001be000200be00f4
:101b500062fb07000001be004efc070004033700d3
:101b6000e10f5300e08f5b0001033a000004be0068
:101b700009f0a200ff0237007fa997008fb19700fc
:101b8000e00f5100e08f59000d003d00e00f5300c1
:101b9000e08f5b0004003a0010022000204488001f
:101ba0000a01be00e9ff3700e10f5300e08f5b0040
:101bb000080032000600200007f823000700370065
:101bc0000200200003f82300f2af9f0083b79f00bc
:101bd000040037000600200007f82b00f6af9f0036
:101be00087b79f000200200003d02400820f560018
:101bf000838f5e005600340072ff2f00f3f723003e
:101c0000820f5200838f5a0006003c003fb09700bd
:101c1000cfb09700e00f5000e08f580004023d0065
:101c2000e20137007200200003f82300820f520007
:101c3000838f5a00060034003fb19700cfb1970060
:101c4000e00f5100e08f5900d8013c00f801370047
:101c50000200200003f8230020fb07000005be005f
:101c600002a02a0083fb2300e9fc070090b79f0035
:101c7000a1b79f0002572a00c36e23000a00be00ce
:101c8000e3fc07000002be000a01be000a00be001d
:101c9000f4b79f0085bf9f00ddfc07000006be0073
:101ca0000200200003e823000a00be00d8fc070061
:101cb0000001be00b0aa2a00a1ea230007fb07002a
:101cc0000001be000a00be00d1fc07000001be00fa
:101cd0000000200001f0230000fb07000001be000f
:101ce0000c00be00cafc0700b2a32a0083fb23003d
:101cf000c7fc07000001be007fb297008fba9700b3
:101d00000400be00f5fa07000005be000001be0099
:101d10001fb09700afb09700f9fa07000001be00ae
:101d20008300780004002f00020062000003be0060
:101d3000b6b79f00c7b79f001fb19700afb197001c
:101d4000e6fa07000001be000a00be005601370097
:101d50006011b800f6ff2f00f7072000860f520031
:101d6000878f5a0007003c000200200003b82400bf
:101d7000a7fc070090b79f00a1b79f0082fe2f002d
:101d8000f3ff2f00f207b1000380b1002fb29700dc
:101d900047a0de0084027800cfa8de0002034000e6
:101da0008383480096af9f00a7af9f00850078000f
:101db000f107b2001fb097000200200003f82300d3
:101dc000020270008382700094b79f00a5b79f0045
:101dd0006033b800d6af9f00e7af9f0012472c00da
:101de000c3012000820f5000838f58001a00340076
:101df0001200200003002000d2af9f00e3af9f003d
:101e0000623d2b00d3052000820f5000838f5800c5
:101e1000110034001faa9700afaa97006102420088
:101e2000e0824a0094af9f00a5af9f000000200011
:101e300001f82f001fb39700afb3970006034000cf
:101e40008783480096b79f00a7b79f006000b8003f
:101e5000d0af9f00e1af9f00dfa89700c208dd0070
:101e600081af9f0080862000010040001005be0069
:101e70000a01be001fb09700afb0970097fa0700a5
:101e80000006be000a01be001fb09700afb0970069
:101e90009bfa07000001be000000200001f82300ab
:101ea0007cfb07000002be000001be000c00be006b
:101eb000f4b79f0085bf9f0055fc07000003be00dc
:101ec0000e002f0081017800c3b79f00000167005a
:101ed000b2b79f005fa89700efa89700c500dd008c
:101ee00000002000d0af9f00e1af9f000000200065
:101ef000010420005fa99700efa9970002014000ac
:101f000083814800d2af9f00e3af9f001fb09700ce
:101f1000afb097008181d1000081d30083007800a9
:101f200001d0a1000200670001d0a0005fa99700c6
:101f3000efa997000201400083814800d2af9f00c3
:101f4000e3af9f005fa99700efa997003fb097000c
:101f5000cfb09700d6b79f00e7b79f002cfc0700d3
:101f60000001be000c00be005cfa07000006be00c7
:101f70000a01be005fa89700efa8970057fa070074
:101f80000001be001fb09700afb0970053fa0700e2
:101f90000001be003fb09700cfb097001cfc0700c7
:101fa0000001be000c00be004cfa07000001be009c
:101fb0007fb297008fba97000400be0014fc0700a0
:101fc0000006be005fb39700efb397000601be00a6
:101fd0000600be000efc07000005be000001be00aa
:101fe0000bfc07000002be0022142f0033e5230083
:101ff0000a00be00f4b79f0085bf9f0004fc0700e5
:1020000052252300c3e623003dfa07000001be006d
:102010000a00be00fefb070052302a00b3e823008e
:1020200037fa07000001be000a00be00f8fb0700f7
:10203000b2aa2a00a3ea230031fa07000001be0079
:102040000a00be00f2fb070072db2600b3ed23009e
:102050002bfa07000001be000a00be00ecfb0700df
:10206000a299290093f1230025fa07000001be0080
:102070007fb297008fba97000400be00e4fb070010
:102080000005be005fb39700efb397000601be00e6
:102090003fb09700cfb0970019fa07000001be00cb
:1020a0000c00be00dafb07000001be000a00be0003
:1020b00013fa070090b79f00a1b79f003fb19700a8
:1020c000cfb197000200be00d1fb07000005be00a3
:1020d000020020000304240009fa07001fb1970042
:1020e000afb1970006fa070081027800000267008e
:1020f0000401be003fb09700cfb09700f4b79f0037
:1021000085bf9f00c2fb0700b0b79f00c1b79f000b
:102110007fb297008fba97000401be000c00be008a
:10212000bbfb07000006be000200200003042400e1
:102130007fb297008fba97000400be00e7f907004e
:102140000a01be00e5f907000001be001fb09700bc
:10215000afb09700e1f907005fb39700efb39700c6
:102160000601be00aafb07000001be000c00be0075
:10217000e3f907000005be000001be003fb0970074
:10218000cfb09700def907008102780000026700f7
:102190000200240063f723000400be00f4b79f0090
:1021a00085bf9f009afb070090b79f00a1b79f00d3
:1021b000623c2200638f2b007fb297008fba97009a
:1021c0000400be0092fb07000006be003fb197006e
:1021d000cfb197007fb297008fba97000400be007e
:1021e000bef907000001be000a00be00bbf90700ef
:1021f000f284230063f7230085fb07000001be0083
:102200000c00be00bef90700028720008fab9700cc
:10221000070141001201be00b9f90700d0af9f00cd
:10222000e1af9f001fa89700afa8970056020700d4
:102230000006be00808720008fa9970003004000a1
:102240001005be005fa99700efa997001fb0970087
:10225000afb09700aaf907000a01be00a8f907006d
:102260000c01be00a6f907000001be008300780043
:10227000020067000002be00b4b79f00c5b79f0010
:102280000c01be0095f907000a01be0093f9070092
:102290001fb19700afb1970090f907000001be0091
:1022a0005fa89700efa897008cf907000005be0013
:1022b000cfaa970000002f00bfab97000702600075
:1022c0000401be000800be00f4b79f0085bf9f0058
:1022d00082f907003fb19700cfb197004cfb070090
:1022e0000006be000a01be000800be0048fb070051
:1022f0000001be000c00be0081f907000004be0012
:102300003fb19700cfb197007fb297008fba970087
:102310000400be003efb07000005be00b0b79f00f2
:10232000c1b79f000a01be000800be0074f9070093
:102330000006be000003be000000200001302400a3
:10234000800f5600818f5e0018003c00800f560001
:10235000818f5e001d003a00c2a32a008333230050
:102360000800be00dcb79f00e7b79f0064f90700d4
:102370000002be000a01be000c00be00f4b79f00c0
:1023800085bf9f0055f907000001be007fb297008e
:102390008fba97000400be001af907005fb39700d8
:1023a000efb397000000e00029003400a22c2f00ba
:1023b000931427007fa897008fb0970014fb0700a5
:1023c000a22c2f0093142700e0003700870178002b
:1023d00003f0a1000c01780000002000613124000e
:1023e000800f5100818f590011003c000000200037
:1023f00061312c00800f5600818f5e0014003a007e
:102400000a01be000c00be00dcb79f00e7b79f00ca
:1024100032f907000001be000800be00f7f807000f
:102420005fb39700efb397000000e00008003c00a6
:102430000226240023da20007fa897008fb097009f
:10244000f3fa07000226240023da2000bf00370039
:102450008701780003f0a100060178006022b8002f
:102460000000200001f02300800f5100818f5900ef
:102470003a0034004798de0022f82f0000014100a6
:1024800000002000010820000201e90003003300e1
:102490008180d1000080d300fbff370000004300a3
:1024a00081804b00010678008c01780003f0a100c8
:1024b000479ade00cf9ade000401be00f207b100a9
:1024c0000380b100b2b79f00c3b79f00f4ff2f0095
:1024d000f5072000bfb197008301e9000300330036
:1024e0008582d1000482d300fbff37000482ea001a
:1024f0008582ea008501660000016200fd07200078
:102500008d026600000278000570a0003fb79700ba
:10251000770017000000e900030033008582d10036
:102520000482d300fbff3700e00f5300e08f5b0015
:1025300002003d0060021200e0821a000a00be00a4
:10254000f4b79f0085bf9f00e4f80700b0b79f0075
:10255000c1b79f008fba97007fb297003fb1970035
:10256000cfb197000800be00f4b79f0085bf9f0061
:10257000e3f80700810678000200280000066100e9
:102580000220270013f323000c00be00a0fa07006e
:102590000005be003fb19700cfb197000c00be0010
:1025a000cef807000001be000800be00cbf807000f
:1025b0008221270013f3230095fa07000004be00d0
:1025c000c2e82b00f35b23000c00be0090fa07006a
:1025d0000001be000800be00c9f807000006be00ea
:1025e0000001be000a00be00c5f807000004be00de
:1025f0000a01be00b9f807000001be000c00be00d1
:10260000b6f80700b0b79f00c1b79f000801be0031
:102610000800be007efa07000005be00c2b42b0011
:10262000133323007afa0700e2a02e00d35d2300c3
:10263000aaf807000001be000a00be0074fa0700f5
:1026400052352b00a3882300adf807000001be001f
:102650000a00be006efa070012b6200063b3230022
:102660009ef807000001be000a00be0068fa0700dd
:10267000b2aa2a00a3e22300a1f807000001be00cd
:102680000a00be0062fa07000001be000800be009a
:1026900092f807000005be000001be000800be0061
:1026a0005bfa07000006be000200200003002400c1
:1026b0000a00be0089f807000001be000c00be0041
:1026c00074f907000005be003fb19700cfb1970035
:1026d0000800be004efa07000001be003fb09700a0
:1026e000cfb0970086f807000001be000a00be00c8
:1026f0007af807000801be0078f807000001be0064
:102700000000200001f8230074f807007fb2970052
:102710008fba9700c721dd000200200002014000af
:1027200083814800479bde00cf9bde00e00f530013
:10273000e08f5b0003003c000401780019000700f3
:102740000001be007fa897008fb0970030fa070005
:10275000070037000800200009f8230005003700b3
:102760006044b800030037000a04be0001003700cf
:102770000004be000800be004f0778004f06be00f0
:102780004f05be004f04be004f02b100000006001e
:102790000001be008300780001f0a1000200780073
:1027a00000000600889fbe0002047800f9072000a0
:1027b000890f54000d0034000200200003f02700b0
:1027c00013fa0700f807b100890f5400170034000e
:1027d0000200200003f027000dfa0700f807b100ff
:1027e000890f540010003c001000370029f82f001a
:1027f000890f54000d003d000200200003c8200096
:1028000003fa07006806b000890f540007003d0076
:102810000200200003c82000fdf907006806b00090
:10282000890f540001003d0009047800f2072000e0
:1028300008014100cf91de00c711dd000200200039
:10284000f3f907004f04be0000000600889fbe0099
:102850008a9fbe008c9fbe000004be0004002000c2
:1028600005f827008583600004037800840f530077
:10287000858f5b0007003a000801be000800be001b
:10288000e3f907000001be000800be001cf80700c5
:1028900010003700e00f5000e08f58000f003c00a0
:1028a0008101780003f0a10000017800e00f5100e1
:1028b000e08f59006a003200100220002044880096
:1028c0000801be000800be0004f807000001be00b9
:1028d000f0f807000004be0061003700478cde00fe
:1028e000cf8cde00e00f5400e08f5c000f003a0058
:1028f0006044b800040037000000400081804800b8
:1029000061044400e0844c0004002000050820001d
:102910008181620004017800e00f5100e08f5900ce
:10292000f5ff320061041400e0841c00f807b100d8
:102930000980b10081017800f307b200000178003e
:102940000200be000170a0000808a30002003200cf
:1029500000004000818048008984d1000884d300b1
:102960000000400081804800940120000200200007
:10297000031020006055b8006066b8000c034100e9
:102980008d834900800f5300818f5b0006003c005f
:1029900006064100878649000600500087805800df
:1029a0000a0541008b8549000000400081804800f5
:1029b0008301d1000281d3000402e900efff3a0055
:1029c000e00f5000e08f58001b0032000226240068
:1029d00023da20000000200001f82300bff70700e1
:1029e0000200200003f8230086f707000000e00043
:1029f000110035000226240023da20000000200008
:102a000001f82300bef707000200200003f82300ae
:102a10007cf707000000e000030034006205450079
:102a2000e0854d00040037006000b80061006500db
:102a30000005450081854d00c744dd0008002000e9
:102a40000000200001f023000804400089844800b1
:102a50008b85d1000a85d3000804450089844d0088
:102a60000800be004f06be004f05be004f04be006a
:102a7000000006000200fa00889fbe000000e0008f
:102a800001003a00100020000004e8000800a10046
:102a9000104480000000e8000000a10010448800fd
:102aa000000020000000e00009003200e10f5400a7
:102ab00001003e00280020000800780050f50700c3
:102ac000290020000000e00022003a000100370049
:102ad0008004eb001044800001448000008050001e
:102ae000800f54001100360008804400d0bf9f00c2
:102af000668057001a000700800078000000eb0095
:102b00000100e000130032000100e8000000a10015
:102b100001448000810f5000010032001044880001
:102b2000dfb8970001004000004488001144800095
:102b30000900e00003003200010078000818780066
:102b400001003700010078000884440088804000bc
:102b5000114488004f04be000080fa000000060007
:102b6000900078000000eb000100e0000500350057
:102b700001007800fef60700e10f400001003a0076
:102b80000000eb00000006004f89de0082017800a3
:102b900000003700881f7800030478000300e0007d
:102ba00007003d0060001000e0801800600119007f
:102bb000e081190002003b0001f02d000300370006
:102bc000b6fa070008f0a70001f0a0004f04780053
:042bd00000000600fb
:020000040000fa
:102bd4000200fa00000f78001e007800e10f500098
:102be4000a003200e10f500005003900e20f5000e6
:102bf40009003200e30f50000a0032000c003700d5
:102c040000002000616124000a0037000000200059
:102c140061692400070037000000200011762400b9
:102c24000400370000002000117e2400010037005a
:102c34006000b8000080fa00000006000200fa00fc
:102c4400004f78008580a9001e80fb0020118800b9
:102c54000080fa00000006000200fa008560a90066
:102c640030118000004f78001e4078000080fa0088
:102c7400000006000200fa00004f780087e0a90077
:102c84001e80fb00a01188000080fa0000000600ee
:102c94000200fa0087c0a900b0118000004f78003c
:102ca4001e4078000080fa00000006000200fa00ce
:102cb400000f78001e007800e20f50000700320079
:102cc400e30f500008003200e10f500009003a0001
:102cd40000002500317c2400070037000000250097
:102ce400318c240004003700004022004197240066
:102cf400010037006000b8000080fa000000060000
:102d04000000fa008620a9000602a8000080fa004c
:102d1400000006000200fa00004f78008620a90097
:102d24001e80fb00101088000080fa0000000600de
:102d34000200fa008620a900000000003004800090
:102d4400620060000000e000fcff32000010800020
:102d5400004f78001e4078000080fa000000060052
:102d64000000fa008620a9000642a8000080fa00ac
:102d7400000006000000fa000662a8000080fa00c5
:102d8400000006000000fa008620a9000622a80020
:102d94000080fa00000006000000fa008620a90066
:102da40006a2a9000682a8000080fa00000006001e
:102db4000000fa008620a90006a2a8000682a80046
:102dc4000080fa00000006001000fa00ea01470043
:102dd400800978006c004700010878006e00470005
:102de40002087800011820000e80e800010878002d
:102df400611820006400470001087800c118200011
:102e04006600470001087800211920006800470087
:102e1400010878000000eb00000f78006a0047000a
:102e2400100078000000e000040032006a0047004f
:102e340010007800e10f500003003a00c010200099
:102e4400000f780002003700e0102000000f780027
:102e54001e007800900078006c0047001000780095
:102e6400808f5000030031009e0078006c00470002
:102e7400110878006e004700100078000000e000a0
:102e840009003a006a004700100078000000400082
:102e94008e80e80000804000900078006c004700bd
:102ea400900878000c0037006a0047001000780092
:102eb400000040008e80e800008040009000780010
:102ec4001e007800100178006c00470010007800a4
:102ed40000005100800878000080fa00000006001d
:102ee4001600fa006e024700000a780070004700de
:102ef4000288be0074004700010878000118200011
:102f04006600470001087800611820006800470047
:102f140001087800c11820006a0047000108780001
:102f2400211920006c004700010878006e0047005a
:102f3400100078004300dd008080e800e08020007d
:102f4400008040001000be00700147001201be0066
:102f54004af607000000e000440032006e0047001b
:102f6400100078000000e000040032006e0047000a
:102f740010007800e10f500007003a000e80e800ce
:102f840002408000134080000288be00c010200070
:102f9400000f7800060037000e80e8002240800011
:102fa400334080000288be00e0102000000f78004b
:102fb4007000470002402200439724001000be0026
:102fc40033f707000268290083c124000ff80700c3
:102fd4000e81e8001201be002df7070001f0a100e8
:102fe40009f60700000178006e0047001000780021
:102ff400c300dd004081200000804000020878000a
:103004006e004700100078004300dd00e600400039
:10301400e080200000804000900078001e007800ce
:1030240010007800808f5000080039001e007800de
:10303400100178006e00470010007800c300dd0026
:103044004081200000804000020878006e004700a4
:1030540010007800c300dd000081200000804000e3
:10306400f000470031187800211078007400470000
:10307400100078000000e0000f003a006e004700e6
:103084001000780000004000e60047000080400087
:10309400100178006e004700100078004300dd0046
:1030a400e6004000e080200000804000100078002e
:1030b40000097800110037006e0047001000780006
:1030c40000004000e6004700008040001001780046
:1030d4001e007800900178006e0047001000780010
:1030e4004300dd00e6004000e08020000080400056
:1030f4001000780000805100000978000080fa0078
:10310400000006000c00fa00889fbe00640247001d
:10311400000a7800660047000288be006a00470083
:10312400010878006000b800008fbe006600470008
:103134001000be0001f0a10018c0b300020020007e
:10314400832c2400aef507000000e00001003c00e1
:103154000044eb000804e0000400320000002000fa
:10316400812c2400660147000089be0064004700ea
:10317400100078000000e000040032006400470002
:1031840010007800e10f50000e003a006008800043
:103194008000eb00b7f507000004be00660047009e
:1031a40002002000832c24001000be00b8f60700a3
:1031b4000001be000800be0094f70700008fbe00a7
:1031c4000d003700700880008000eb00a9f50700af
:1031d4000004be006600470002002000832c240087
:1031e4001000be00aaf607000001be000800be00e1
:1031f40086f70700008fbe001e00be0082f50700a0
:1032040000007800ea00470011017800800078008f
:103214006400470010007800ebfe07004f04be0076
:103224000080fa00000006000400fa00000f780095
:103234000e80e800010878001e007800e20f5000bc
:103244002c003200e20f500005003e000000e000b8
:1032540008003200e10f500016003200550037001c
:10326400e30f500033003200e40f500041003200fd
:10327400500037008460a9000e80e8001000780038
:1032840000f0a7000000ea000000e9004f00de00a3
:10329400004078000080fb00610060004300dd0016
:1032a400a10480000130a10001007000a004880086
:1032b4004000370084e0a9000e80e8001000780088
:1032c40000f0a7000000ea000000e9004f00de0063
:1032d400004078000080fb00610060004700dd00d2
:1032e400a10480000170a10001007000a004880006
:1032f400300037008500a9000e80e8001000780037
:1033040000f0a7000000ea000000e9004f00de0022
:10331400004078000080fb00610060004800dd0090
:10332400a10480000180a10001007000a0048800b5
:10333400200037008760a9000e80e80010007800a4
:1033440000f0a7000000ea000000e9004f00de00e2
:10335400004078000080fb00610060004b00dd004d
:10336400b104800001b0a10001007000b004880025
:10337400100037008780a9000e80e8001000780054
:1033840000f0a7000000ea000000e9004f00de00a2
:10339400004078000080fb00610060004c00dd000c
:1033a400b104800001c0a10001007000b0048800d5
:1033b400000000000080fa00000006000400fa008b
:1033c400000f78000e80e800014878001e007800a5
:1033d400e20f500026003200e20f500005003e00cc
:1033e4000000e00008003200e10f5000130032003a
:1033f40046003700e30f50002a003200e40f50006b
:1034040035003200410037000e80e800104078009b
:10341400634060000080fb00630060004400dd0046
:1034240022088000f1fc2f0081006100010070007f
:103434002008880005e1a800340037000e80e80069
:1034440010407800634060000080fb00630060006f
:103454004400dd0082088000f1fc2f00810061003f
:10346400010070008008880011e1a80027003700df
:103474000e80e80010407800634060000080fb008c
:10348400630060004400dd0092088000f1fc2f001e
:1034940081006100010070009008880013e1a80019
:1034a4001a0037000e80e800104078006340600086
:1034b4000080fb00630060004400dd00f20880002f
:1034c400f1fc2f008100610001007000f008880009
:1034d4001fe1a8000d0037000e80e80010407800be
:1034e400634060000080fb00630060004400dd0076
:1034f40002098000f1fc2f008100610001007000ce
:103504000009880021e1a800000000000080fa0002
:10351400000006002c00fa00881f78002502200015
:103524008e824200800a7800400220000e00400093
:1035340001087800600220000e0040000288be00ee
:10354400a00220000e004000040878006000b800cb
:10355400660147000089be0000f02f00f1772400c7
:103564006a0147000089be000000200001f8230022
:10357400008fbe008040eb006400470001487800e3
:10358400011020006e00470001087800611020003f
:103594007000470001087800a11020007200470065
:1035a40001087800411120007400470001087800e8
:1035b40081112000760047000108780021102000c6
:1035c4007800470001087800c11020007a00470005
:1035d40001087800e11020007c0047000108780011
:1035e400a11120007e00470001087800c1112000cd
:1035f400000220000e004000010878002002200094
:103604000e004000100078006a00b9000000780045
:103614008080e800608320000080400090007800f3
:10362400400220000e00400010007800808f5000ff
:103634000f003a00200220000e0040001000780025
:103644006a00b90000007800e400400060832000b4
:10365400008040001000be00620220000e01410004
:103664001201be0085f407000000e0007d00320076
:103674008040eb00640047000148780057003700a1
:1036840064004700104078000080fb008000eb00dd
:1036940078f407000001be0000002000011024009f
:1036a4005af80700008fbe0018c0b30002002000c3
:1036b400032824001e00be0051f407000000e000af
:1036c40001003c000044eb000804e0000300320069
:1036d4000000200001382400008fbe0040022000ba
:1036e4000e004000100078000000e8008000eb00ad
:1036f40060f407000001be0000002000a147240080
:1037040042f80700640220000e0242000001be00dd
:103714001400be005ef507000268290083c124007e
:103724003af607001e01be0059f50700660147007e
:103734000089be0018c0b300ea00470066004700d5
:103744001101be001000be002bf407000000e000d1
:10375400010034000044eb000804e0000d003200d6
:10376400660047001000be0027f40700000178003f
:10377400200220000e004000100078006a00b9000a
:1037840080007800e0832000008040000208780078
:10379400160037006400470010407800e34f5000e3
:1037a40009003a00200220000e00400010007800ba
:1037b4006a00b90080007800e083200000804000a7
:1037c4008080eb0001087800640047001040780016
:1037d4008040e80064004700014878006400470026
:1037e40010407800e34f5000a5ff3600200220006f
:1037f4000e004000100078006a00b90080007800d4
:103804006083200000804000e400470011487800f5
:10381400200220000e004000100078006a00b90069
:103824008000780080832000008040004102200056
:103834008e80400011087800200220000e00400015
:10384400100078006a00b90080007800a08320008e
:1038540000804000610220008e8040003118780012
:1038640021107800200220000e0040001000780093
:1038740000004000000047006e0040001000780087
:103884008000eb0001087800200220000e004000b8
:10389400100078000000400000004700780040005d
:1038a40010017800200220000e0040001000780073
:1038b4006a00b90000007800e8004000608320003e
:1038c400008040001000780000097800a002200069
:1038d4000e00400090007800200220000e004000fe
:1038e4001000780050fe0700200220000e00400067
:1038f400100078006a00b90080007800608320001e
:1039040000804000104078008040780020022000b1
:103914000e00400010007800a8fe07004f04780055
:103924000080fa00000006000200fa000000eb002c
:10393400000f7800200f8000000f7800e421ef00d2
:103944001e0078000080fa00000006000200fa0061
:103954000000eb00000f7800a00f8000000f78003b
:10396400f421ef001e0078000080fa000000060039
:103974000000fa0020012000403a8800213a80002b
:10398400f08f2f0000806000203a8800213a8000e8
:1039940000fe2f0000806000203a880060022000b2
:1039a400303a8800213a8000f0f32f000080600054
:1039b400203a880040a7a9001200200080072000b8
:1039c400a1092000337420008049780081497800df
:1039d4008249780012002000600420007105200054
:1039e4002374200080497800814978008249780056
:1039f40000000000113a8000000027008080600071
:103a040000002100808f5000faff3a0000000000ff
:103a1400113a800000022000008060000000e000f5
:103a2400fbff32000080eb0060198800c022ef0029
:103a3400c422ef004460a90011028000f0f12f00bd
:103a4400008060001002880081e0a90083e0a900e2
:103a540000a8210061002000f30907000080fa009b
:103a6400000006000200fa00000f78001e00780033
:103a74008000eb0068004000010878001e00780018
:103a840051002000010878001e0078006100200029
:103a94000080e800010878001e0078008000eb0038
:103aa4006c004000010878001e0078008000eb00e4
:103ab4006e004000010878001e0078008000eb00d2
:103ac4006a004000010878001e007800c100200050
:103ad40064004000010878001e007800d100200036
:103ae40066004000010878001e0078008000eb00aa
:103af40072004000010878001e0078008000eb008e
:103b040074004000010878001e0078008000eb007b
:103b14000003b000010878001e0078008000eb006c
:103b24002003b000010878001e0078008000eb003c
:103b34004003b000010878001e0078008000eb000c
:103b44006003b000010878001e0078008000eb00dc
:103b54008003b000010878001e0078008000eb00ac
:103b6400c002b000010878001e0078008000eb005d
:103b7400e002b000010878001e007800810c2000eb
:103b84004002b000010878001e007800810c20007b
:103b94006002b000010878001e007800810c20004b
:103ba4008002b000010878001e007800810c20001b
:103bb400a002b000010878001e0078001100200067
:103bc4000002b000010878001e0078008000eb00bd
:103bd4002002b000010878001e007800810c20004b
:103be40078004000010878001e007800810c200055
:103bf4007a004000010878001e007800810c200043
:103c04007c004000010878001e007800810c200030
:103c14007e004000010878001e007800210020008a
:103c2400a003b000010878001e0078008000eb00bb
:103c3400c003b000010878000080fa00000006000c
:103c44000600fa00e400470080087800016c2000b8
:103c54000e80e800010878000000eb00000f7800f7
:103c64000080eb00401688006400470010007800d4
:103c740090007800800c2000808f500011003200ea
:103c84006400470010007800100078001100200044
:103c94000008dd000080ea00411680000100600099
:103ca40040168800640047001000780090007800f7
:103cb4000e80e800100078000100400031c0b3001d
:103cc4000148780064004700100078000080e80094
:103cd40090007800800c2000808f50001d0032007e
:103ce40064004700100078000080e80010007800ad
:103cf400110020000008dd004116800000807000e3
:103d04004016880064004700100078000080e80036
:103d140010007800004078007f4060000080fb00c5
:103d24007f0060002235800001fe2f0081006100c9
:103d340001007000203588006400470010007800fe
:103d44000080e80010007800110020000008dd0069
:103d54001e0f7000640047001000780064004000eb
:103d640090007800800c2000808f500013003200f7
:103d740064004700100078006400400010007800e0
:103d8400110020000008dd000080ea0041168000d8
:103d940001006000401688006400470010007800ad
:103da40064004000900078000e80e8001000780065
:103db4000100400051c0b30001487800640047008e
:103dc400100078006600400090007800800c20000d
:103dd400808f50001d0032006400470010007800fe
:103de4006600400010007800110020000008dd008b
:103df400411680000080700040168800640047006f
:103e04001000780066004000100078000040780040
:103e14007f4060000080fb007f006000323580003e
:103e240001fe2f0081006100010070003035880020
:103e3400640047001000780066004000100078001d
:103e4400110020000008dd001e0f70006400470010
:103e5400100078007800400090007800800c20006a
:103e6400808f500013003200640047001000780077
:103e74007800400010007800110020000008dd00e8
:103e84000080ea00411680000100600040168800ae
:103e9400640047001000780078004000900078002b
:103ea4000e80e800100078000100400021c1b3003a
:103eb4000148780064004700100078007a00400050
:103ec40090007800800c2000808f50001300320096
:103ed40064004700100078007a0040001000780069
:103ee400110020000008dd000080ea004116800077
:103ef400010060004016880064004700100078004c
:103f04007a004000900078000e80e80010007800ed
:103f14000100400031c1b30001487800640047004b
:103f2400100078007c00400090007800800c200095
:103f3400808f5000130032006400470010007800a6
:103f44007c00400010007800110020000008dd0013
:103f54000080ea00411680000100600040168800dd
:103f640064004700100078007c0040009000780056
:103f74000e80e800100078000100400041c1b30049
:103f84000148780064004700100078007e0040007b
:103f940090007800800c2000808f500013003200c5
:103fa40064004700100078007e0040001000780094
:103fb400110020000008dd000080ea0041168000a6
:103fc400010060004016880064004700100078007b
:103fd4007e004000900078000e80e8001000780019
:103fe4000100400051c1b30001487800640047005b
:103ff400100078004002b00090007800800c20008f
:10400400808f5000420032006400470010007800a6
:104014006002b00090007800800c2000808f500077
:104024003b00320064004700100078004002b000fa
:1040340010007800110020000008dd004116800007
:10404400008070004016880064004700100078006b
:104054004002b00010007800004078007f4060000b
:104064000080fb007f006000e234800001fe2f002e
:104074008100610001007000e034880064004700a2
:10408400100078004002b0001000780011002000f9
:104094000008dd001e0f7000640047001000780067
:1040a4006002b00010007800110020000008dd005c
:1040b40041168000008070004016880064004700ac
:1040c400100078006002b000100078000040780012
:1040d4007f4060000080fb007f0060004800dd003e
:1040e400e2348000f10f2e008100610001007000b5
:1040f400e034880064004700100078006002b000db
:1041040010007800110020000008dd001e0f700070
:1041140064004700100078008002b000900078002e
:10412400800c2000808f5000420032006400470061
:1041340010007800a002b00090007800800c2000ed
:10414400808f50003b00320064004700100078006c
:104154008002b00010007800110020000008dd008b
:1041640041168000008070004016880064004700fb
:10417400100078008002b000100078000040780041
:104184007f4060000080fb007f00600002358000fb
:1041940001fe2f00810061000100700000358800dd
:1041a40064004700100078008002b000100078001e
:1041b400110020000008dd001e0f7000640047009d
:1041c40010007800a002b000100078001100200058
:1041d4000008dd0041168000008070004016880051
:1041e4006400470010007800a002b00010007800be
:1041f400004078007f4060000080fb007f0060008a
:104204004800dd0002358000f10f2e0081006100be
:104214000100700000358800640047001000780039
:10422400a002b00010007800110020000008dd009a
:104234001e0f7000401680001e00600040168800ab
:1042440000a8210061002000f70707000080fa00a1
:10425400000006000a00fa00e80047008008780021
:10426400680047001000780090007800800c20005f
:10427400808f500007003a00680047001000780063
:104284000080e80090007800800c2000808f5000af
:104294006e0032002022ef002222ef002822ef00dd
:1042a4002062a80070a7a9006800470010007800e9
:1042b400680040001000780045fa0700008fbe0037
:1042c40002002000030824001e00be004ff3070074
:1042d4000001be000068290081c124006cf20700bf
:1042e4000200200003f823007bf1070046f10700d9
:1042f40000007800401188000111800090ff2f0019
:1043040000806000001188002002a9008580a900b7
:1043140068004700100078006c004000100078002e
:104324000000e00002003a009580a9000100370077
:104334009580a80068004700100078006c004000d9
:104344001000780000407800674060000080fb00a7
:10435400670060005205800081ff2f00810061002a
:1043640001007000500588008560a90068004700be
:10437400100078006e004000100078000000e0009b
:1043840002003a009560a900010037009560a8007a
:1043940068004700100078006e00400010007800ac
:1043a40000407800674060000080fb006700600008
:1043b4004c00dd0042058000f1ff2800810061000f
:1043c40001007000400588008c20a90068004700a7
:1043d4001000780070004000100078000000e00039
:1043e40002003a009c20a900010037009c20a8008c
:1043f400680047001000780070004000100078004a
:1044040000407800674060000080fb0067006000a7
:104414004400dd0022068000f1f82f0081006100d5
:1044240001007000200688002162a90023a2a800d0
:1044340023e2a90021e2a8002342a8000111800080
:10444400f0cf2f0000806000001188006800470052
:10445400100078006400400090007800800c200078
:10446400808f500007003a00680047001000780071
:104474006600400090007800800c2000808f50007f
:10448400710032003022ef003222ef003822ef00b8
:104494003062a80070c7a9006800470010007800c7
:1044a4006a00400010007800c9f907006401470061
:1044b4000089be00640047000200200003082400b5
:1044c4001000be00d1f207000001be000068290000
:1044d40081c12400eef107000200200003f823004c
:1044e400fdf00700c8f0070000007800c011880044
:1044f4008111800090ff2f000080600080118800ef
:104504003002a90087e0a900680047001000780085
:1045140072004000100078000000e00002003a0041
:1045240097e0a9000100370097e0a8006800470061
:1045340010007800720040001000780000407800fd
:10454400674060000080fb00670060004c00dd00f5
:1045540092058000f1ff28008100610001007000d5
:104564009005880087c0a900680047001000780003
:1045740074004000100078000000e00002003a00df
:1045840097c0a9000100370097c0a8006800470041
:10459400100078007400400010007800004078009b
:1045a400674060000080fb00670060004800dd0099
:1045b40092058000f18f2f008100610001007000de
:1045c400900588008c40a90068004700100078001e
:1045d40076004000100078000000e00002003a007d
:1045e4009c40a900010037009c40a80068004700d7
:1045f4001000780076004000100078000040780039
:10460400674060000080fb00670060004800dd0038
:1046140022068000f18f2f008100610001007000ec
:10462400200688003162a90033a2a90033e2a90060
:1046340031e2a8003342a80081118000f0cf2f009e
:10464400008060008011880000c42900010020005f
:10465400f50607000080fa00000006000a00fa00d0
:10466400e8004700800878006800470010007800e0
:10467400a003b000100078000000e0004300320006
:104684006800470010007800a003b0001000780014
:1046940086f90700008fbe001e01be000000200046
:1046a40001f823007af1070012622900b3402300c5
:1046b40089f007000268290083c1240053f207002f
:1046c400020020000300240083f007006401470077
:1046d4000089be00c902a800c922a8000622ef0072
:1046e4000822ef0070e7a9000c22ef000a22ef0075
:1046f400640047001000be0043f00700000078008b
:10470400201088008620a900680047001000780067
:10471400c003b000100078000000e00002003a007e
:104724009620a900010037009620a80068004700e1
:1047340010007800c003b00010007800004078003a
:10474400674060000080fb00670060004400dd00fb
:1047540062058000f1f82f00810061000100700003
:10476400600588008600a9009600a9006105800004
:1047740080ff2f00008060006005880007e2a80029
:1047840000c4290001002000a70607000080fa00e9
:10479400000006001400fa00881f7800f2004700a9
:1047a400800878008040eb006800470001487800ea
:1047b40072004700100078007800400090007800f4
:1047c400800c2000808f500007003a0072004700e0
:1047d400100078007a00400090007800800c2000df
:1047e400808f5000410032007200470010007800b2
:1047f4000002b000100078000000e00005003a005c
:10480400a0702d0031ca23006a0147000089be0050
:104814000400370050f92b00613d23006a01470072
:104824000089be008221ef008021ef008421ef0087
:104834008821ef008621ef008a21ef001021ef008c
:104844000080eb0060088800680047001040780092
:10485400634060000080fb00630060004400dd00f2
:1048640082088000f1fc2f008100610001007000cb
:10487400800888007200470010007800780040002b
:1048840090007800800c2000808f500008003200d7
:104894007207a900210c800080ff2f0000806000b7
:1048a4006000b300200c88008461a90011e1a80015
:1048b40072004700100078007a00400090007800f1
:1048c400800c2000808f5000080032007227a9005d
:1048d400510c800080ff2f00008060006000b30056
:1048e400500c88008a61a90011e1a80072004700f9
:1048f400100078007c00400090007800800c2000bc
:10490400808f500007003a007200470010007800c2
:104914007e00400090007800800c2000808f5000c2
:104924008300320072004700100078002002b000bb
:10493400100078000000e00005003a00a0702d008f
:1049440031ca2300640147000089be000400370017
:1049540050f92b00613d2300640147000089be002b
:104964008e21ef008c21ef009021ef009421ef00c5
:104974009221ef009621ef001221ef008040eb001e
:1049840068004700014878003c0037006800470091
:10499400104078000080fb008000eb00b5ef0700ba
:1049a4000001be00000020000110240097f307005e
:1049b400008fbe0018c0b3000200200003282400aa
:1049c4001e00be008eef07000000e00001003c0066
:1049d4000044eb000804e000030032000000200063
:1049e40001382400008fbe006400470002682900db
:1049f40083c124001000be0084f107001e01be0024
:104a0400a3f007006e0147000089be0018c0b30080
:104a14006e00470002f02f00f37724001000be0060
:104a240075ef07000000e000010034000044eb00d3
:104a34000804e000060032006e0047001000be00cb
:104a440071ef070000007800700888000f0037003d
:104a54006800470010407800e34f500002003a001d
:104a64000080eb0070088800680047001040780060
:104a74008040e8006800470001487800680047006b
:104a840010407800e34f5000c0ff36006800470034
:104a940010407800634060000080fb006300600009
:104aa4004400dd0092088000f1fc2f0081006100c9
:104ab4000100700090088800720047001000780020
:104ac4007c00400090007800800c2000808f500013
:104ad400080032007247a900810c800080ff2f007b
:104ae400008060006000b300800c88009061a80022
:104af40013e1a80072004700100078007e00400017
:104b040090007800800c2000808f50000800320054
:104b14007267a900b10c800080ff2f000080600044
:104b24006000b300b00c88009661a80013e1a800ef
:104b34004f0478000080fa00000006000200fa002a
:104b4400000f78001e0078004002b000900078004a
:104b5400800c2000808f5000270032001e00780057
:104b64006002b00090007800800c2000808f50001c
:104b7400210032008b40a9001e007800c002b00062
:104b8400100078000000e00002003a009b40a900f9
:104b9400010037009b40a8001e007800c002b0004e
:104ba4001000780000407800674060000080fb003f
:104bb400670060004800dd0002068000f18f2f00ce
:104bc400810061000100700000068800f0ff2700ea
:104bd400200f88000080eb00300f8800e021ef00f8
:104be4007147a900010f80000070200001007000cf
:104bf400000f8800e0c1a9001e0078008002b00008
:104c040090007800800c2000808f50002700320034
:104c14001e007800a002b00090007800800c2000f4
:104c2400808f5000210032008d60a9001e007800a2
:104c3400e002b000100078000000e00002003a003a
:104c44009d60a900010037009d60a8001e00780047
:104c5400e002b00010007800004078006740600077
:104c64000080fb00670060004c00dd00420680000d
:104c7400f1ff2800810061000100700040068800f7
:104c8400f0ff2700a00f88000080eb00b00f880021
:104c9400f021ef0074a7a900810f800000702000ac
:104ca40001007000800f8800f0c1a9000080fa00a4
:104cb400000006000200fa00000f78008460a900da
:104cc4001e0078000003b000100078000000e0002f
:104cd40002003a009460a900010037009460a80023
:104ce4001e0078000003b000100078000040780037
:104cf400674060000080fb00670060004c00dd003e
:104d040022058000f1ff280081006100010070008d
:104d14002005880084e0a9001e0078002003b0006c
:104d2400100078000000e00002003a0094e0a900be
:104d34000100370094e0a8001e0078002003b000b2
:104d44001000780000407800674060000080fb009d
:104d5400670060004c00dd0032058000f1ff280090
:104d64008100610001007000300588008500a90001
:104d74001e0078004003b000100078000000e0003e
:104d840002003a009500a900010037009500a80030
:104d94001e0078004003b000100078000040780046
:104da400674060000080fb006700600042058000ef
:104db40081ff2f0081006100010070004005880020
:104dc4008760a9001e0078006003b000100078001e
:104dd4000000e00002003a009760a90001003700db
:104de4009760a8001e0078006003b00010007800ef
:104df40000407800674060000080fb0067006000ae
:104e04004c00dd0082058000f1ff28008100610074
:104e140001007000800588008780a9001e007800ca
:104e24008003b000100078000000e00002003a00a7
:104e34009780a900010037009780a8001e00780021
:104e44006003b00010007800004078006740600004
:104e54000080fb00670060009205800081ff2f0046
:104e64008100610001007000900588000080fa0054
:104e7400000006000200fa0040022000fcf60700d1
:104e8400000f7800e0032000f9f6070080007800a6
:104e94001e007800010878001e00780001622100dd
:104ea4000080e800010878001e007800e16221001b
:104eb40064004000010878001e007800c1632100ee
:104ec40066004000010878001e007800a1642100fb
:104ed40068004000010878001e0078002168210065
:104ee4006a004000010878001e007800c1682100b3
:104ef4006c004000010878001e007800a1692100c0
:104f04006e004000010878001e007800216b21002b
:104f140070004000010878001e007800c16b210079
:104f240072004000010878001e007800416c2100e6
:104f340074004000010878001e007800e16c210034
:104f440076004000010878001e007800a16d210061
:104f540078004000010878001e00780021772100c5
:104f64007a004000010878001e0078004188210082
:104f74007c004000010878001e007800c1a82100d0
:104f84007e004000010878001e00780061c92100fd
:104f94000002b000010878001e00780081ca2100d8
:104fa4002002b000010878001e0078000080fa009a
:104fb400000006000200fa006dfa0700adff0700ca
:104fc400000f78001e00780010007800a5fa070092
:104fd4001e0078001000780019fb07001e007800fe
:104fe400100078009bfc07001e0078001000780079
:104ff4009afd07001e00780010007800e5fd070008
:105004001e00780010007800ccfe07001e00780017
:105014001000780027ff07001e0078000080fa00c7
:10502400000006000400fa000e81e8000049780040
:1050340063004700014878000e80e80010407800c3
:105044000080fb00c900dd006300470010407800c9
:105054000080fb004300dd0001007000000f7800b9
:105064000e80e800104078000080fb00c900dd00dd
:1050740063004700104078000080fb004300dd001f
:1050840001007000000f78001e0078000080fa0014
:10509400000006000200fa0000cab300004f7800c6
:1050a4001e04a1001e4078000080fa0000000600e3
:1050b4000200fa0000cab300004f78001e04a000ea
:1050c4001e4078000080fa00000006000e00fa007e
:1050d400e6024700800a780068004700014878002b
:1050e40069004700024878006a0047000308780016
:1050f4006c0047000448780069004700904078003d
:105104006800470010407800c6ff07008000780060
:105114006400470001087800640047008000e8004c
:105124000e00e80011487800e40047000e80e80013
:1051340011487800d7ff0700e30047008048780053
:1051440066004700100078006a00400010007800f4
:1051540000000100000000003004800062006000d4
:105164000000e000fcff32006600470010007800f9
:105174006c00400090007800630047001040780005
:1051840001000100000000003004800062006000a3
:105194000000e000fcff32006600470010007800c9
:1051a4006c004000900078000e00e8001040780089
:1051b4000100010000000000300480006200600073
:1051c4000000e000fcff3200660047001000780099
:1051d4006c004000900078000e80e80010407800d9
:1051e4000100010000000000300480006200600043
:1051f4000000e000fcff32000040eb00004f7800ac
:105204001000370066004700100078006c00400072
:10521400100178001e80fb00ea004700910078002e
:1052240000804000104078000200010000000000ef
:1052340030048000620060000000e000fcff3200e7
:105244001e4fe8006c004700104078009e40780034
:1052540080cf5000ebff3900660047001000780053
:105264007000400010007800000001000000000001
:1052740030048000620060000000e000fcff3200a7
:1052840000d4200031002000e70307000080fa006a
:10529400000006000e00fa00881f7800e6024700ae
:1052a400800a7800680047000148780069004700d8
:1052b400024878006a004700030878006c00470041
:1052c400044878006900470090407800680047006f
:1052d4001040780053ff0700800078006400470006
:1052e40001087800640047008000e8000e00e80030
:1052f40011487800e40047000e80e8001148780067
:1053040064ff0700e3004700804878006600470018
:10531400100078006a0040001000780000000100ce
:105324000000000030048000620060000000e00023
:10533400fcff320066004700100078006c0040005b
:1053440090007800630047001040780001000100dd
:105354000000000030048000620060000000e000f3
:10536400fcff320066004700100078006c0040002b
:10537400900078000e00e800104078000100010061
:105384000000000030048000620060000000e000c3
:10539400fcff320066004700100078006c004000fb
:1053a400900078000e80e8001040780001000100b1
:1053b4000000000030048000620060000000e00093
:1053c400fcff3200660047001000780074004000c3
:1053d400100078000000010000000000300480008c
:1053e400620060000000e000fcff320030ff0700b4
:1053f400e30047008048780066004700100078000a
:105404006c00400090007800630047001040780072
:105414000100010000000000300480006200600010
:105424000000e000fcff3200660047001000780036
:105434007200400010007800000001000040eb0002
:10544400004f780031003700000000003004800075
:10545400620060000000e000fcff32001e80fb00e0
:10546400ea0047009100780000844000660047008d
:10547400100078006e004000100078000000010069
:10548400004c78009e80fb006c00470010407800c0
:105494000080fb000000e900808f50000b003a0000
:1054a4006600470010007800780040001000780083
:1054b4000000010000000000300480006200600071
:1054c4000000e000fcff32000f00370066004700d8
:1054d4001000780076004000100078000000010001
:1054e4000000000030048000620060000000e00062
:1054f400fcff320066004700100078007200400094
:1055040010007800000001001e4fe8006c00470006
:10551400104078009e40780080cf5000caff3900c8
:10552400660047001000780070004000100078000a
:1055340000000100000000003004800062006000f0
:105544000000e000fcff32004f0478000080fa0005
:10555400000006000600fa00000f78000e80e80044
:10556400014878006300470002487800640047005f
:10557400034878001e00780010007800e40047001b
:1055840014c0b30081017800e300470011417800a2
:105594008e80e80091407800ccfe07000080fa007d
:1055a400000006000600fa00000f78000e80e800f4
:1055b400014878006300470002487800640047000f
