:020000040000fa
:080000000002040000000000f2
:020000040000fa
:0400080044030000ad
:020000040000fa
:04000c0044030000a9
:020000040000fa
:0400100044030000a5
:020000040000fa
:0400140044030000a1
:020000040000fa
:04001800440300009d
:020000040000fa
:04001c004403000099
:020000040000fa
:040020004403000095
:020000040000fa
:040024004403000091
:020000040000fa
:04002800440300008d
:020000040000fa
:04002c004403000089
:020000040000fa
:040030004403000085
:020000040000fa
:040034004403000081
:020000040000fa
:04003800440300007d
:020000040000fa
:04003c004403000079
:020000040000fa
:040040004403000075
:020000040000fa
:040044004403000071
:020000040000fa
:04004800440300006d
:020000040000fa
:04004c004403000069
:020000040000fa
:040050004403000065
:020000040000fa
:040054004403000061
:020000040000fa
:04005800440300005d
:020000040000fa
:04005c004403000059
:020000040000fa
:040060004403000055
:020000040000fa
:040064004403000051
:020000040000fa
:04006800440300004d
:020000040000fa
:04006c004403000049
:020000040000fa
:040070004403000045
:020000040000fa
:040074004403000041
:020000040000fa
:04007800440300003d
:020000040000fa
:04007c004403000039
:020000040000fa
:040080004403000035
:020000040000fa
:040084004403000031
:020000040000fa
:04008800440300002d
:020000040000fa
:04008c004403000029
:020000040000fa
:040090004403000025
:020000040000fa
:040094004403000021
:020000040000fa
:04009800440300001d
:020000040000fa
:04009c004403000019
:020000040000fa
:0400a0004403000015
:020000040000fa
:0400a4004403000011
:020000040000fa
:0400a800440300000d
:020000040000fa
:0400ac004403000009
:020000040000fa
:0400b0004403000005
:020000040000fa
:0400b4004403000001
:020000040000fa
:0400b80044030000fd
:020000040000fa
:0400bc0044030000f9
:020000040000fa
:0400c00044030000f5
:020000040000fa
:0400c40044030000f1
:020000040000fa
:0400c80044030000ed
:020000040000fa
:0400cc0044030000e9
:020000040000fa
:0400d00044030000e5
:020000040000fa
:0400d40044030000e1
:020000040000fa
:0400d80044030000dd
:020000040000fa
:0400dc0044030000d9
:020000040000fa
:0400e00044030000d5
:020000040000fa
:0400e40044030000d1
:020000040000fa
:0400e80044030000cd
:020000040000fa
:0400ec0044030000c9
:020000040000fa
:0400f00044030000c5
:020000040000fa
:0400f40044030000c1
:020000040000fa
:0400f80044030000bd
:020000040000fa
:0400fc0044030000b9
:020000040000fa
:0401000044030000b4
:020000040000fa
:0401040044030000b0
:020000040000fa
:0401080044030000ac
:020000040000fa
:04010c0044030000a8
:020000040000fa
:0401100044030000a4
:020000040000fa
:0401140044030000a0
:020000040000fa
:04011800440300009c
:020000040000fa
:04011c004403000098
:020000040000fa
:040120004403000094
:020000040000fa
:040124004403000090
:020000040000fa
:04012800440300008c
:020000040000fa
:04012c00ec020000e1
:020000040000fa
:0401300018030000b0
:020000040000fa
:040134004403000080
:020000040000fa
:04013800440300007c
:020000040000fa
:04013c004403000078
:020000040000fa
:040140004403000074
:020000040000fa
:040144004403000070
:020000040000fa
:04014800440300006c
:020000040000fa
:04014c004403000068
:020000040000fa
:040150004403000064
:020000040000fa
:040154004403000060
:020000040000fa
:04015800440300005c
:020000040000fa
:04015c004403000058
:020000040000fa
:040160004403000054
:020000040000fa
:040164004403000050
:020000040000fa
:0402080044030000ab
:020000040000fa
:04020c0044030000a7
:020000040000fa
:0402100044030000a3
:020000040000fa
:04021400440300009f
:020000040000fa
:04021800440300009b
:020000040000fa
:04021c004403000097
:020000040000fa
:040220004403000093
:020000040000fa
:04022400440300008f
:020000040000fa
:04022800440300008b
:020000040000fa
:04022c004403000087
:020000040000fa
:040230004403000083
:020000040000fa
:04023400440300007f
:020000040000fa
:04023800440300007b
:020000040000fa
:04023c004403000077
:020000040000fa
:040240004403000073
:020000040000fa
:04024400440300006f
:020000040000fa
:04024800440300006b
:020000040000fa
:04024c004403000067
:020000040000fa
:040250004403000063
:020000040000fa
:04025400440300005f
:020000040000fa
:04025800440300005b
:020000040000fa
:04025c004403000057
:020000040000fa
:040260004403000053
:020000040000fa
:04026400440300004f
:020000040000fa
:04026800440300004b
:020000040000fa
:04026c004403000047
:020000040000fa
:040270004403000043
:020000040000fa
:04027400440300003f
:020000040000fa
:04027800440300003b
:020000040000fa
:04027c004403000037
:020000040000fa
:040280004403000033
:020000040000fa
:04028400440300002f
:020000040000fa
:04028800440300002b
:020000040000fa
:04028c004403000027
:020000040000fa
:040290004403000023
:020000040000fa
:04029400440300001f
:020000040000fa
:04029800440300001b
:020000040000fa
:04029c004403000017
:020000040000fa
:0402a0004403000013
:020000040000fa
:0402a400440300000f
:020000040000fa
:0402a800440300000b
:020000040000fa
:0402ac004403000007
:020000040000fa
:0402b0004403000003
:020000040000fa
:0402b40044030000ff
:020000040000fa
:0402b80044030000fb
:020000040000fa
:0402bc0044030000f7
:020000040000fa
:0402c00044030000f3
:020000040000fa
:0402c40044030000ef
:020000040000fa
:0402c80044030000eb
:020000040000fa
:0402cc0044030000e7
:020000040000fa
:0402d00044030000e3
:020000040000fa
:0402d40044030000df
:020000040000fa
:0402d80044030000db
:020000040000fa
:0402dc0044030000d7
:020000040000fa
:0402e00044030000d3
:020000040000fa
:0402e40044030000cf
:020000040000fa
:0402e80044030000cb
:020000040000fa
:0402ec0044030000c7
:020000040000fa
:0402f00044030000c3
:020000040000fa
:0402f40044030000bf
:020000040000fa
:0402f80044030000bb
:020000040000fa
:0402fc0044030000b7
:020000040000fa
:0403000044030000b2
:020000040000fa
:0403040044030000ae
:020000040000fa
:0403080044030000aa
:020000040000fa
:04030c0044030000a6
:020000040000fa
:0403100044030000a2
:020000040000fa
:04031400440300009e
:020000040000fa
:04031800440300009a
:020000040000fa
:04031c004403000096
:020000040000fa
:040320004403000092
:020000040000fa
:04032400440300008e
:020000040000fa
:04032800440300008a
:020000040000fa
:04032c00ec020000df
:020000040000fa
:0403300018030000ae
:020000040000fa
:04033400440300007e
:020000040000fa
:04033800440300007a
:020000040000fa
:04033c004403000076
:020000040000fa
:040340004403000072
:020000040000fa
:04034400440300006e
:020000040000fa
:04034800440300006a
:020000040000fa
:04034c004403000066
:020000040000fa
:040350004403000062
:020000040000fa
:04035400440300005e
:020000040000fa
:04035800440300005a
:020000040000fa
:04035c004403000056
:020000040000fa
:040360004403000052
:020000040000fa
:04036400440300004e
:020000040000fa
:100400004f8620000e7f24000e01880000000000af
:10041000000020000000e000020032000001200087
:100420002002880014000700990007000000e00087
:1004300003003a0000a5210001002000020037005f
:100440000000200001002000810f70000100320038
:1004500014000700000020000000e000020032004d
:1004600000000200000000006a1a02000000000004
:100470000040da000000fe004440a9000000200017
:100480000000e0000300320000002000a00188000e
:100490004440a800000006008a1f78008b1f7800e7
:1004a0000000060091018800800478000000eb0045
:1004b0001a003700e284440032a0b4009905ba0063
:1004c000e284440032a0b4009906ba00e2844400f9
:1004d00032a0b4000006eb00476fde00fd07b2005b
:1004e000636ce10003003a00ebff07000000eb0043
:1004f0000a003700606ce10004003a00005deb0088
:100500008b05e900fdff3e00040037006168e10053
:10051000010032000086eb000b00070019c7ba008b
:100520001905ba000e04e00003003a000a00e000da
:10053000e0ff3a0000000600fe07b2009e018800be
:100540008a047800f5ff3700395dba008b05e900b1
:100550000c003200295dba008b05e900080032006a
:100560000c00e00003003a00e284440032a0b40032
:10057000f5ff370019ddba008b05e900faff3a00f4
:100580008904e800e184440032a0b40000000600c1
:1005900038140400000000004614040000000000ad
:1005a0005414040000000000621404000000000065
:1005b0007a15040000000000681604000000000026
:1005c0004618040000000000d219040000000000da
:1005d000e419040000000000801f78003400f800d7
:1005e00000002000a00188000000fa008c20a90073
:1005f00010118000640060000000e00007003a0075
:1006000010118000620060000000e0000400320071
:100610002222a900000000000100370000000000b5
:100620000080fa003400f9004f0078000040060016
:10063000801f78003400f80000002000a00188002e
:100640000000fa008c40a900901180006400600056
:100650000000e00007003a00901180006200600096
:100660000000e000040032003222a9000000000077
:1006700001003700000000000080fa003400f9009b
:100680004f007800004006000040da000000fe0045
:100690000000050003f0a200889fbe008a9fbe00f4
:1006a0008c1f7800f9000700000133006450e1005e
:1006b0004f0032006420e1005200320003826c00df
:1006c00007003b000905d0000306d000820f54004c
:1006d0000c065d000200390002003200890178003a
:1006e000030678008582550004003d000003fd00ec
:1006f0008103fd008502ea008b854200840f7200b1
:1007000002003b0060001000e08018006011b8009b
:100710000005eb007a28e1000a00390006007800a5
:10072000c75ddd00f707b200878075002d00370038
:10073000828171000a017800610560008180d1002a
:100740000080d3008502e900f9ff3b000604400069
:100750008784480002003b0060041400e0841c0011
:100760000988a300070032008a817100828171002c
:10077000610164008904d1000884d3008b05e8007e
:10078000170037000978a30013003a000b00e000bf
:10079000130034008b05e9000804440089844c00f0
:1007a0000a4474000978a3000d003a000b00e00031
:1007b000070034008b05e9000804440089844c00dc
:1007c00001003a000b0020000978a300f7ff320077
:1007d0000001eb0002003700828171000a017800fd
:1007e0006f0007000cf0a70001f0a000b800370070
:1007f0006420e10002003a00838f6c00b8003300ef
:100800000801be000200be00b1003700889fbe0094
:100810008a9fbe008c1f78009c000700a300330055
:1008200003866c006450e1002e0032006420e10079
:10083000330032006150e1002f0032006120e100fe
:100840003100320085855500eb07b000090020001b
:1008500008042000050037000804440089844c0087
:100860000a0031000603430087834b000001530058
:1008700081815b00f8ff33000203be000800a00086
:100880000804440089844c00f6ff3900c639dd00b5
:100890008301730001003200130020008904d1009d
:1008a0000884d3000998a300050032000800a700bf
:1008b0000300a0008904d1000884d3008b05e80060
:1008c0008904d1000884d3000001eb000281d2002a
:1008d0003300070001f0a1000cf0a70001f0a00018
:1008e0007b0037006420e1007d0032000801be007b
:1008f0000200be00f7ff37006120e10078003200ff
:100900006000b800f3ff37000000200001f8270066
:10091000f0ff37001400200021023700f4ff2f0001
:100920001f0237000001be00430007000470a7004b
:1009300003f0a10003f8a30013003a006509b10019
:1009400010003200090035006928e100020035007e
:1009500001002800000005000000400081804800e0
:100960008502e900fcff3a0000000600f88f420013
:10097000050035008100d1000080d3008502e80029
:10098000fcff3a00000006008000eb0000000500bc
:100990006011b80041023700040020000002370057
:1009a00081002000618055000b003d000b002000fd
:1009b00061fe2f000100e1001d0034008281710002
:1009c000610164008904d1000884d3000000e800bc
:1009d000faff3a007100200061006400030070001b
:1009e000020060000900320061044400e0844c0011
:1009f0000988a500050032008b05e8006808e100c1
:100a000002003a008904d1000884d300f20f2000cc
:100a10000258e10005003d00c75ddd00f907b200a6
:100a20008980750008007800000006000bf8270098
:100a30008b00780000000500c70ade00f107b20055
:100a4000f50fb20008003200e1cf42000200320090
:100a50000170a00024000500810f70000100320029
:100a60000408050044000500810f700002003a00f0
:100a7000140005008502e9000000400081c0480024
:100a8000fcff3b000170a000240005000004be0034
:100a9000e9ff07000003be000405be000200be001f
:100aa000e5ff0700844f7500000006000200be004d
:100ab0006450e100050036006420e10002003600c9
:100ac0000968a30001003a000800be000160a00010
:100ad0004f0678004f05be004f04be000000060020
:100ae000f0ff2f00f1ff2700f9ff3700889fbe00bd
:100af0008a9fbe008c1f7800e4ff0700ebff3300e5
:100b000003866c006450e100240032006420e100a0
:100b1000270032006150e100220032006120e10034
:100b2000210032008b854200eb07b1000134b80090
:100b3000003ab8000804420089844a00013ab8002b
:100b40000030b8008880400009014a0004003300ea
:100b50000000400081804800020149008b05e90047
:100b6000c909dd008301700001003200130020007c
:100b7000c814de004814dd004709de001200b20090
:100b8000c808de000884700085ff070001f0a1009e
:100b90000cf0a70001f0a000cdff37006120e100bc
:100ba000cfff32000801be000200be00f7ff370091
:100bb0006150e100fcff3a00c9ff37000c00fa0069
:100bc000889fbe008a9fbe008c9fbe00afff0700bb
:100bd0000206be00840578000200be00020020006c
:100be0004801070005003a008b02b3001200200004
:100bf0004401070001003a00f8856d000c01be00b9
:100c0000c60007000800be009b0032000b08a300ce
:100c10009e003a000df0a7000be0a00009f0a7002d
:100c20000bf0a00009f0a1000801be00bb00070006
:100c30000bf0a6009500320001003c000bd0a00094
:100c40008acf7500b20033006000b8006250e10046
:100c500099003900a1003e000b28a300a2003a0031
:100c60000bf8a300060032000b58a300a7003200c7
:100c70000801be00a90007000800be009400320071
:100c80000800be00b00007000004be0005057800a3
:100c90000bf0a7000b30a6000bf0a1005b0798003b
:100ca000324f200053f323001aff070005003d00d8
:100cb0000800be0012002000a70107000004be00cb
:100cc0000a05e9004a0798006150b9007001070061
:100cd000008fbe000c01be0084ff07004b0107001f
:100ce000300798000100e00002003d0060001000a5
:100cf000e0801800f2ff2700820f5000e08f5800bc
:100d000064003e000c00be00400107002007980070
:100d1000f2072000820f5000e08f580005003c00d1
:100d200012f82f00f3ff2f00820f5000838f58001e
:100d300009003d000a00e0000300320001003c0011
:100d40000201ea00020578006000b8002007980060
:100d50003a079800190037003e0090006100b90082
:100d60004b010700809fbe000c00be004109dd0062
:100d70004811de007208b100e20007000005be0065
:100d80001e01be0059ff07004f01be0041fe0700d3
:100d9000809fbe000c00be000a01be003dfe0700a1
:100da0001e01be0051ff07004f01be003afe0700c2
:100db0008221270013f323004cff07000005be002b
:100dc0002e0090006100b9003101070001f0a2007f
:100dd0000c01be0030fe07000006be000800be0089
:100de0007f0107000c01be0040ff07000a01be00a2
:100df00029fe0700809fbe004a0007002e059000d4
:100e00000af0a7000a05ea00050037000800be0046
:100e10000801be0035ff07000004be000c00be0044
:100e20000801be000a00a70030ff07000006be0050
:100e30000a05d100f5ff3a005e01900002e0a6002d
:100e4000030037000001be00360007006ffe0700f8
:100e50000004be004f00be00480007000801be00ad
:100e600022ff07003e0190003b010700de059000d5
:100e70000bf0a70001f0a2004f06be004f05be0018
:100e80004f04be000080fa000000060025000700a5
:100e9000f9ff3700270007006000b8000bd0a7005b
:100ea0000bc0a0000be0a7000bc0a2000bc0a70066
:100eb00001f82700f0ff37000df8a3000200320010
:100ec0001e000700190007000bf8a300eaff32001c
:100ed0000b30a70001f0a200e7ff37000df8a300d8
:100ee000f9ff3a00f7ff37000801be000b000700ca
:100ef000e6ff320001003c000df0a2006000b800e7
:100f00000df0a70009000700dbff37000b0007000a
:100f1000f1ff2700f0ff2f00d7ff37000100070087
:100f20007cfe370001f823000000050001f82700cf
:100f30000000050020022000010037001002200000
:100f400040408800000006000003be00bafe070013
:100f50006220e100020032000600be00050005002c
:100f6000e507b100f107b20004f0230084807000af
:100f700007f0a70001f0a00024000500889fbe0034
:100f80008a9fbe008c9fbe000004be00aafe070020
:100f90000800be006420e10048003e005500320019
:100fa00072212700132b24005cfe070047003c0041
:100fb0000800be00c2ec2800e32c2c0055fe070000
:100fc000470035000800be0001f0a100020020002b
:100fd000033823004ffe0700430035000800be0021
:100fe000b2a32a0083fb2300c0fe070002002000fa
:100ff00003f0230001f0a70003f0a000a6fd070006
:10100000820007000005be00a100070001f0a20059
:101010000006be000200280013f32300b3fe070001
:101020000801be009cfd0700809fbe000c00be00b2
:1010300032082800e3952b00acfe07004f01be00ec
:1010400095fd07000006be000001be00a7fe0700d8
:10105000809fbe004241250083b82300a3fe070005
:101060000200200003e823008bfd07000c01be00f6
:101070009efe07000006be004f00be00f2f92b00e6
:10108000c3d4230099fe07000200200003f02300d0
:1010900081fd07000c01be007efd07000001be00bf
:1010a0000c00be00d9fd07000200200003f0230061
:1010b00079fd070061014500a70007004f06be004b
:1010c0004f05be004f04be000000060001f82700d7
:1010d000000020002202200042408800f7ff370075
:1010e0006000b800fbff370001f82300000020007b
:1010f000f2ff370009f8a300f0ff32006000b800eb
:10110000eeff3700889fbe008a9fbe000003be002e
:1011100049fe070085057800828152000200200008
:101120006220e10004003a00f307b100040035003a
:101130007718e100040035000600be0014003700f7
:101140006000b8000f003700f50f2000faff2f00f5
:101150008502d1000a85d3008301e900fcff3b0032
:101160008184620000046500890f7400f2ff320080
:101170008582ea000a85ea00818462000004650035
:1011800007fe070007f0a70001f0a0000081eb00b8
:101190000200e0004f05be004f04be000000060044
:1011a000889fbe008a9fbe00841f780037fe07001c
:1011b0004f00780011003300f0ff2f00838f6c0088
:1011c00006003b00040565000a00a7000800370080
:1011d00009f0a6001000200008003700820f54001c
:1011e000838f5c00030039001000200001003e00e6
:1011f0000000200009f0a7000000ea004f05be0033
:101200004f04be000000e000000006000001be0028
:1012100009fe07000470a70003f0a1006509b100f2
:10122000160032000d0035006828e1000600350088
:10123000f0ff2f00f1ff27000300e00013003b0048
:1012400001002800000005000000400081804800e7
:101250008502e900fcff3a0008003700f88f4200e1
:1012600002003c008000eb00000005008100d1007e
:101270000080d3008502e800fcff3a000300e00094
:1012800002003b0060001000e08018000000060033
:101290004f89de0082017800a8003700889fbe00d9
:1012a0008a9fbe00008270000402710004827100f7
:1012b000260032000004be000200be006011b8002b
:1012c0006b092000950220000182cf000a0039003e
:1012d0000541b1000082cf00070039000541b1008f
:1012e0000982cf00040039000541b1000882cf0017
:1012f000010039000541b1000542520012003200e0
:101300000a003b0082817100610164008100d1000c
:101310000080d3008984d3000884d3008b05e800c3
:101320000442e800f7ff3a000700370008044400d1
:1013300089844c0000004800818048008b05e9004a
:101340000442e900f9ff3a0095fd07004f05be0091
:101350004f04be00000006000003be00b6fd0700fb
:101360006220e100020032000600be00000006001c
:1013700085024100e30f20000328e10005003c0046
:10138000a3fe2f000328e10007003d000500200018
:1013900001003700f50f20002002200040408800a7
:1013a0006000b8000800370013002000838152005d
:1013b00005003d008100d1000080d3008301e800da
:1013c000fcff3a0005002000c72add00f107b2004b
:1013d0008580700007f0a70001f0a0000000060063
:1013e000889fbe008a9fbe008c9fbe00d6fe07006d
:1013f000850478000005be006420e10049003e003d
:101400006220e10003003200090035000bf8a30060
:10141000440032000bf8a300080032001002200044
:1014200040408800f0ff2f00f1ff27003d0037000b
:1014300001f82f00000020003a0037003d000700af
:1014400094fc07000006be000a00be00324f2000d8
:1014500053f3230031fd0700060034000c00be00ea
:10146000340007008bfc07000006be000a00be0027
:10147000020037008904e9000c00be002d000700bf
:101480009afd07002b00070083fc07000001be0047
:101490000c00be00ddfc07000005be000001be0020
:1014a00092fd07000006be00a2f32300430d2c00ae
:1014b00079fc0700809fbe000c00be00d2e327002d
:1014c000d3f02b0089fd07004f01be00cffc0700c1
:1014d0000006be000a01be0084fd07000a01be002e
:1014e0006dfc07000006be006148b90068ff0700f8
:1014f0000005be0032082800e3952b007bfd0700a5
:101500000c01be0064fc07000006be000a00be001d
:101510000200280013f3230074fd07000c01be0035
:101520005dfc07004f06be004f05be004f04be0025
:101530000000060003f0230002000500881f780069
:10154000030478000300e00007003d006000100085
:10155000e080180060011900e081190002003b00e2
:1015600001f02d00030037004cff070008f0a70032
:0c15700001f0a0004f047800000006000d
:020000040000fa
:10157c000200fa00000f78001e007800e10f500006
:10158c000a003200e10f500005003900e20f500054
:10159c0009003200e30f50000a0032000c00370043
:1015ac0000002000616124000a00370000002000c8
:1015bc006169240007003700000020001176240028
:1015cc000400370000002000117e240001003700c9
:1015dc006000b8000080fa00000006000200fa006b
:1015ec00000f78001e007800e20f50000700320058
:1015fc00e30f500008003200e10f500009003a00e0
:10160c0000002500317c2400070037000000250075
:10161c00318c240004003700004022004197240044
:10162c00010037006000b8000080fa0000000600de
:10163c000000fa0020012000403a8800213a800086
:10164c00f08f2f0000806000203a8800213a800043
:10165c0000fe2f0000806000203a8800600220000d
:10166c00303a8800213a8000f0f32f0000806000af
:10167c00203a880040a7a900120020008007200013
:10168c00a10920003374200080497800814978003a
:10169c0082497800120020006004200071052000af
:1016ac0023742000804978008149780082497800b1
:1016bc0000000000113a80000000270080806000cc
:1016cc0000002100808f5000faff3a00000000005b
:1016dc00113a800000022000008060000000e00051
:1016ec00fbff32000080eb0060198800c022ef0085
:1016fc00c422ef004460a90011028000f0f12f0019
:10170c00008060001002880081e0a90083e0a9003d
:10171c000080fa00000006000200fa00000f7800ba
:10172c001e00780021002000410098001e00780067
:10173c008000eb00610098001e0078008000eb0038
:10174c00710098001e0078002100200051009800c4
:10175c001e0078008000eb00110898001e00780035
:10176c008000eb00210898000080fa0000000600c1
:10177c000600fa0020079800006c20001007980063
:10178c000000eb00000f78000080eb004016880092
:10179c002e00900090007800800c2000808f50006c
:1017ac000e0032002e009000100078001100200076
:1017bc000008dd008080ea00401680000080600098
:1017cc00401688002e009000100078009e009000bb
:1017dc000080400031c0b300014878002e0090001a
:1017ec0090009000800c2000808f50001800320078
:1017fc002e00900010009000110020000008dd0069
:10180c0080007800401680000100700040168800af
:10181c002e00900010009000004078007f40600087
:10182c000080fb007f0060002235800001fe2f004d
:10183c008100610001007000203588002e009000ae
:10184c0010009000110020000008dd001e0f700039
:10185c002e009000a0009000800c2000808f500083
:10186c000e0032002e00900020009000110020008d
:10187c000008dd008080ea004016800000806000d7
:10188c00401688002e009000200090009e009000d2
:10189c000080400051c0b300014878002e00900039
:1018ac00b0009000800c2000808f50001800320097
:1018bc002e00900030009000110020000008dd0088
:1018cc0080007800401680000100700040168800ef
:1018dc002e00900030009000004078007f406000a7
:1018ec000080fb007f0060003235800001fe2f007d
:1018fc008100610001007000303588002e009000de
:10190c0030009000110020000008dd001e0f700058
:10191c002e009000c0089000800c2000808f50009a
:10192c000e0032002e0090004008900011002000a4
:10193c000008dd008080ea00401680000080600016
:10194c00401688002e009000400890009e009000e9
:10195c000080400021c1b300014878002e009000a7
:10196c00d0089000800c2000808f50000e003200b8
:10197c002e00900050089000110020000008dd009f
:10198c008080ea00401680000080600040168800cd
:10199c002e009000500890009e00900000804000a7
:1019ac0031c1b300014878002e009000e00890008f
:1019bc00800c2000808f50000e0032002e00900012
:1019cc0060089000110020000008dd008080ea0013
:1019dc004016800000806000401688002e009000a9
:1019ec00600890009e0090000080400041c1b30050
:1019fc00014878002e009000f0089000800c200028
:101a0c00808f50000e0032002e0090007008900065
:101a1c00110020000008dd008080ea0040168000e4
:101a2c0000806000401688002e0090007008900026
:101a3c009e0090000080400051c1b3000148780026
:101a4c002e009000a0109000800c2000808f500081
:101a5c00360032002e009000b0109000800c200058
:101a6c00808f5000310032002e009000201090002a
:101a7c00110020000008dd00800078004016800076
:101a8c0001007000401688002e009000201090007d
:101a9c00004078007f4060000080fb007f00600009
:101aac00e234800001fe2f00810061000100700013
:101abc00e03488002e0090002010900011002000cf
:101acc000008dd001e0f70002e00900030109000fa
:101adc00110020000008dd00800078004016800016
:101aec0001007000401688002e009000301090000d
:101afc00004078007f4060000080fb007f006000a9
:101b0c004800dd00e2348000f10f2e0081006100fe
:101b1c0001007000e03488002e009000301090001e
:101b2c00110020000008dd001e0f70002e00900038
:101b3c00c0109000800c2000808f500036003200c6
:101b4c002e009000d0109000800c2000808f500050
:101b5c00310032002e009000401090001100200047
:101b6c000008dd0080007800401680000100700045
:101b7c00401688002e009000401090000040780025
:101b8c007f4060000080fb007f0060000235800019
:101b9c0001fe2f00810061000100700000358800fb
:101bac002e00900040109000110020000008dd0075
:101bbc001e0f70002e00900050109000110020009d
:101bcc000008dd00800078004016800001007000e5
:101bdc00401688002e0090005010900000407800b5
:101bec007f4060000080fb007f0060004800dd004b
:101bfc0002358000f10f2e008100610001007000a1
:101c0c00003588002e00900050109000110020002c
:101c1c000008dd001e0f7000401680001e006000e2
:101c2c004016880000a82100610020000b06070068
:101c3c000080fa00000006000a00fa004007980035
:101c4c004e00900090007800800c2000808f500097
:101c5c0005003a004e00900090009000800c20008f
:101c6c00808f5000600032002022ef002222ef0013
:101c7c002822ef002062a80070a7a9004e00900057
:101c8c00400090003afe0700008fbe0002002000ca
:101c9c00030824001e00be0091fb07000001be00db
:101cac000068290081c12400d5fa07000200200039
:101cbc0003f8230074fa070017fb070000007800f4
:101ccc00401188000111800090ff2f0000806000ff
:101cdc00001188002002a9008580a9004e00900008
:101cec00600090000000e00002003a009580a9001e
:101cfc00010037009580a8004e0090006000900015
:101d0c0000407800674060000080fb0067006000c6
:101d1c005205800081ff2f008100610001007000de
:101d2c00500588008560a9004e009000700090005e
:101d3c000000e00002003a009560a90001003700a5
:101d4c009560a8004e009000700090000040780054
:101d5c00674060000080fb00670060004c00dd0005
:101d6c0042058000f1ff2800810061000100700035
:101d7c00400588008c20a9004e00900000089000bf
:101d8c000000e00002003a009c20a900010037008e
:101d9c009c20a8004e0090000008900000407800a5
:101dac00674060000080fb00670060004400dd00bd
:101dbc0022068000f1f82f00810061000100700004
:101dcc00200688002162a90023a2a80023e2a90012
:101ddc0021e2a8002342a80001118000f0cf2f00bf
:101dec0000806000001188004e009000a000900060
:101dfc00800c2000808f500005003a004e009000af
:101e0c00b0009000800c2000808f500063003200e6
:101e1c003022ef003222ef003822ef003062a800af
:101e2c0070c7a9004e00900050009000d0fd070034
:101e3c0020079800310798000200200003082400b6
:101e4c002e009000be00900025fb07000001be0094
:101e5c000068290081c1240069fa070002002000f3
:101e6c0003f8230008fa0700abfa0700000078001b
:101e7c00c01188008111800090ff2f00008060004d
:101e8c00801188003002a90087e0a9004e00900064
:101e9c00100890000000e00002003a0097e0a90052
:101eac000100370097e0a8004e0090001008900049
:101ebc0000407800674060000080fb006700600015
:101ecc004c00dd0092058000f1ff280081006100cc
:101edc00010070009005880087c0a9004e0090009a
:101eec00200890000000e00002003a0097c0a90012
:101efc000100370097c0a8004e0090002008900009
:101f0c0000407800674060000080fb0067006000c4
:101f1c004800dd0092058000f18f2f0081006100e8
:101f2c0001007000900588008c40a9004e009000c4
:101f3c00300890000000e00002003a009c40a9002c
:101f4c00010037009c40a8004e0090003008900023
:101f5c0000407800674060000080fb006700600074
:101f6c004800dd0022068000f18f2f008100610007
:101f7c0001007000200688003162a90033a2a9007c
:101f8c0033e2a90031e2a8003342a800811180009d
:101f9c00f0cf2f00008060008011880000c4290061
:101fac00010020002d0507000080fa00000006004b
:101fbc000a00fa00400798004e009000501890005c
:101fcc000000e0003d0032004e00900050189000e0
:101fdc0082fd0700008fbe001e01be000000200025
:101fec0001f8230006fa070012622900b34023000f
:101ffc00a5f907000268290083c12400b8fa07007c
:10200c0002002000030024009ff90700200798001d
:10201c0031079800c902a800c922a8000622ef00c7
:10202c000822ef0070e7a9000c22ef000a22ef0053
:10203c002e009000be00900037fa070000007800d8
:10204c00201088008620a9004e0090006018900097
:10205c000000e00002003a009620a90001003700c1
:10206c009620a8004e009000601890000040780068
:10207c00674060000080fb00670060004400dd00ea
:10208c0062058000f1f82f008100610001007000f2
:10209c00600588008600a9009600a90061058000f3
:1020ac0080ff2f00008060006005880007e2a80018
:1020bc0000c4290001002000e80407000080fa0099
:1020cc00000006001800fa00881f7800300f9800f6
:1020dc0000f02f00f177240070079800010f980092
:1020ec003e089000c0089000800c2000808f5000ab
:1020fc0005003a003e089000d0089000800c2000ab
:10210c00808f50007b0032003e0890000010900041
:10211c000000e00005003a00a0702d0031ca230039
:10212c0020079800310798000400370050f92b0065
:10213c00613d230020079800310798008221ef00b1
:10214c008021ef008421ef008821ef008621ef0031
:10215c008a21ef001021ef000080eb00600888005e
:10216c000040eb00404f9800380037004e4890007c
:10217c000080fb008000eb0002fa07000001be00ab
:10218c00000020000110240089fa0700008fbe0017
:10219c0018c0b30002002000032824001e00be005b
:1021ac00dbf907000000e00001003c000044eb00fc
:1021bc000804e00003003200000020000138240075
:1021cc00008fbe000268290083c124002e009000fd
:1021dc00be00900042fa07001e01be0088f90700fd
:1021ec00100f9800210f980018c0b3007e019000ca
:1021fc008e0990001e089000ae089000c2f90700ee
:10220c000000e000010034000044eb000804e00092
:10221c00060032001e089000ae089000bef90700c0
:10222c0000007800600888000b0037004e489000d2
:10223c00e34f500002003a000080eb006008880079
:10224c004e4890000040e800404f98004e489000e7
:10225c00e34f5000c5ff36004e48900063406000cd
:10226c000080fb00630060004400dd0082088000f9
:10227c00f1fc2f00810061000100700080088800d3
:10228c001e01be0002408800134088003e089000ea
:10229c00c0089000800c2000808f50000800320095
:1022ac007207a900210c800080ff2f0000806000c5
:1022bc006000b300200c88008461a90011e1a80023
:1022cc003e089000d0089000800c2000808f5000b9
:1022dc00080032007227a900510c800080ff2f00eb
:1022ec00008060006000b300500c88008a61a90077
:1022fc0011e1a8003e089000e0089000800c20003e
:10230c00808f500005003a003e089000f0089000c5
:10231c00800c2000808f5000790032003e08900025
:10232c00101090000000e00005003a00a0702d0095
:10233c0031ca230040079800510798000400370069
:10234c0050f92b00613d230040079800510798007d
:10235c008e21ef008c21ef009021ef009421ef00f3
:10236c009221ef009621ef001221ef000040eb00cc
:10237c00404f9800380037004e4890000080fb001a
:10238c008000eb007ff907000001be000000200078
:10239c000110240006fa0700008fbe0018c0b3001d
:1023ac0002002000032824001e00be0058f907007c
:1023bc000000e00001003c000044eb000804e000d9
:1023cc00030032000000200001382400008fbe0002
:1023dc000268290083c124004e009000de009000aa
:1023ec00bff907001e01be0005f90700100f980089
:1023fc00210f980018c0b3007e0190008e09900048
:10240c001e089000ae0890003ff907000000e000a5
:10241c00010034000044eb000804e0000600320028
:10242c001e089000ae0890003bf9070000007800f1
:10243c00700888000b0037004e489000e34f5000a6
:10244c0002003a000080eb00700888004e489000b3
:10245c000040e800404f98004e489000e34f500079
:10246c00c5ff36004e489000634060000080fb00c2
:10247c00630060004400dd0092088000f1fc2f0036
:10248c008100610001007000900888001e01be00f0
:10249c0022408800334088003e089000e0089000fd
:1024ac00800c2000808f5000080032007247a90079
:1024bc00810c800080ff2f00008060006000b30062
:1024cc00800c88009061a80013e1a8003e089000e1
:1024dc00f0089000800c2000808f50000800320023
:1024ec007267a900b10c800080ff2f000080600093
:1024fc006000b300b00c88009661a80013e1a8003e
:10250c004f0478000080fa00000006000200fa0078
:10251c00000f78001e007800a0109000800c2000a6
:10252c00808f5000240032001e007800b010900004
:10253c00800c2000808f50001f0032008b40a900bf
:10254c001e007800601090000000e00002003a00cd
:10255c009b40a900010037009b40a8001e0078009a
:10256c006010900000407800674060000080fb0025
:10257c00670060004800dd0002068000f18f2f002c
:10258c00810061000100700000068800f0ff270048
:10259c00200f88000080eb00300f8800e021ef0056
:1025ac007147a900010f800000702000010070002d
:1025bc00000f8800e0c1a9001e007800c010900038
:1025cc00800c2000808f5000240032001e00780008
:1025dc00d0109000800c2000808f50001f00320023
:1025ec008d60a9001e007800701090000000e000c3
:1025fc0002003a009d60a900010037009d60a80010
:10260c001e00780070109000004078006740600059
:10261c000080fb00670060004c00dd00420680007b
:10262c00f1ff280081006100010070004006880065
:10263c00f0ff2700a00f88000080eb00b00f88008f
:10264c00f021ef0074a7a900810f8000007020001a
:10265c0001007000800f8800f0c1a9000080fa0012
:10266c00000006000200fa00000f78008460a90048
:10267c001e007800001890000000e00002003a00f4
:10268c009460a900010037009460a8001e00780037
:10269c000018900000407800674060000080fb004c
:1026ac00670060004c00dd0022058000f1ff28006f
:1026bc0081006100010070002005880084e0a90001
:1026cc001e007800101890000000e00002003a0094
:1026dc0094e0a9000100370094e0a8001e007800e7
:1026ec001018900000407800674060000080fb00ec
:1026fc00670060004c00dd0032058000f1ff28000f
:10270c008100610001007000300588008500a9007f
:10271c001e007800201890000000e00002003a0033
:10272c009500a900010037009500a8001e00780054
:10273c002018900000407800674060000080fb008b
:10274c00670060004205800081ff2f00810061005e
:10275c0001007000400588008760a9001e00780009
:10276c00301890000000e00002003a009760a900c9
:10277c00010037009760a8001e0078003018900008
:10278c0000407800674060000080fb00670060003c
:10279c004c00dd0082058000f1ff28008100610003
:1027ac0001007000800588008780a9001e00780059
:1027bc00401890000000e00002003a009780a90049
:1027cc00010037009780a8001e0078003018900098
:1027dc0000407800674060000080fb0067006000ec
:1027ec009205800081ff2f008100610001007000c4
:1027fc00900588000080fa00000006008200fa00b4
:10280c00881f78000004780089fb07000e00780010
:10281c00c1fb07000e007800d5fb07000e00780006
:10282c0005fd07000e007800e1fd07000e007800a2
:10283c0024fe07000e00780034ff07000e0078001d
:10284c0088ff0700400009003e1c78002808b100f2
:10285c002e08b100080078004f0478000080fa00c0
:10286c00000006000200fa00004f78008580a900e5
:10287c001e80fb00201188000080fa00000006007a
:10288c000200fa008560a90030118000004f78002a
:10289c001e4078000080fa00000006000200fa00da
:1028ac00004f780087e0a9001e80fb00a011880073
:1028bc000080fa00000006000200fa0087c0a900a0
:1028cc00b0118000004f78001e4078000080fa00a4
:1028dc00000006000000fa008620a9000602a800ed
:1028ec000080fa00000006000200fa00004f780099
:1028fc008620a9001e80fb00101088000080fa00c2
:10290c00000006000200fa008620a900000000006a
:10291c0030048000620060000000e000fcff320028
:10292c0000108000004f78001e4078000080fa00f4
:10293c00000006000000fa008620a9000642a8004c
:10294c000080fa00000006000000fa000662a800f1
:10295c000080fa00000006000000fa008620a900a2
:10296c000622a8000080fa00000006000000fa0011
:10297c008620a90006a2a9000682a8000080fa0001
:10298c00000006000000fa008620a90006a2a8009c
:10299c000682a8000080fa00000006001200fa006f
:1029ac00881f7800500798006207980073079800fa
:1029bc00010f9800001820001007980060182000e4
:1029cc0020079800c018200030079800201920001c
:1029dc00400798000000eb00000f78006e0090009c
:1029ec00fe00900001f0a1006007980071079800ac
:1029fc005e0090000000e000030032005e009000da
:102a0c00e10f500003003a00c0102000000f7800c6
:102a1c0002003700e0102000000f78001e00780044
:102a2c00100078008000eb00d6f7070018c0b30048
:102a3c006e019000fe019000b3f707000000e0006b
:102a4c00010035000044eb000804e00006003200f1
:102a5c001e007800100078008000eb00c9f707001a
:102a6c0060079800710798000e0890000000e000c5
:102a7c000b003a005e009000000040008e80e800e1
:102a8c0000804000100478006e009000fe00900062
:102a9c00a1f7070000007800000c78000f00370049
:102aac005e009000000040008e80e8000080400036
:102abc00100478001e007800100078008000eb00f5
:102acc00b0f707006e019000fe019000eef60700d3
:102adc0091f7070000007800000c78004f04780094
:102aec000080fa00000006001600fa00700798003b
:102afc00020f9800130f9800210f98000018200067
:102b0c00300798006018200040079800c01820007b
:102b1c005007980020192000600798007e00900054
:102b2c004300dd008080e800c0832000008040006e
:102b3c001000be000e0990009e09900093f707004c
:102b4c000000e0003e0032007e0090000000e0003b
:102b5c00030032007e009000e10f500007003a00a5
:102b6c000240800013408000120798002307980051
:102b7c00c0102000000f78000600370022408000b3
:102b8c00334080001207980023079800e0102000c3
:102b9c00000f780002402200439724000e0890009a
:102bac009e08900016f707000268290083c12400d4
:102bbc00cbf707001e019000ae01900010f7070044
:102bcc0001f0a10054f70700800078007e0090000f
:102bdc004301dd0020842000000041000108780042
:102bec007e0090004300dd00e6004000c083200022
:102bfc0000804000900078001e00780010007800e3
:102c0c00808f5000070039001e007800900078007b
:102c1c007e0090004301dd00208420000000410074
:102c2c00010878007e009000c300dd00e0832000e6
:102c3c00008040000e0990009e0990000288be00a2
:102c4c002e0890000000e0000d003a007e0090007d
:102c5c0000004000e60047000080400010007800b3
:102c6c00fe009000c308dd0066814000c183200097
:102c7c008100410091007800010878000f003700b6
:102c8c007e00900000004000e600470000804000fd
:102c9c00100078009e00780011017800fe00900072
:102cac00c308dd00e6814000c18320008180410023
:102cbc009100780081005100010878000080fa0032
:102ccc00000006000c00fa00889fbe002007980048
:102cdc003207980043079800510798006000b8002d
:102cec00008fbe003e009000ce00900001f0a100cd
:102cfc0018c0b30002002000832c240004f7070046
:102d0c000000e00001003c000044eb000804e0007f
:102d1c000400320000002000812c240030079800b1
:102d2c00410798002e0090000000e00003003200e4
:102d3c002e009000e10f50000e003a006008800059
:102d4c008000eb000ff707000004be00020020001b
:102d5c00832c24003e009000ce009000a8f60700c3
:102d6c000001be000800be005df70700008fbe002a
:102d7c000d003700700880008000eb0001f70700a1
:102d8c000004be0002002000832c24003e009000b2
:102d9c00ce0090009af607000001be000800be00ad
:102dac004ff70700008fbe00de0090001e01be0032
:102dbc002e009000f9fe07004f04be000080fa00c0
:102dcc00000006000400fa00000f780011079800bc
:102ddc001e007800e20f50002a003200e20f500073
:102dec0005003e000000e00008003200e10f50003a
:102dfc001500320050003700e30f50003000320055
:102e0c00e40f50003d0032004b0037008460a900f5
:102e1c001e00900000f0a7000000ea000000e9008e
:102e2c004f00de00004078000080fb006100600075
:102e3c004300dd00a10480000130a10001007000fe
:102e4c00a00488003c00370084e0a9001e0090001c
:102e5c0000f0a7000000ea000000e9004f00de00cf
:102e6c00004078000080fb00610060004700dd003e
:102e7c00a10480000170a10001007000a004880072
:102e8c002d0037008500a9001e00900000f0a7005f
:102e9c000000ea000000e9004f00de00004078006e
:102eac000080fb00610060004800dd00a104800090
:102ebc000180a10001007000a00488001e003700f2
:102ecc008760a9001e00900000f0a7000000ea0037
:102edc000000e9004f00de00004078000080fb009d
:102eec00610060004b00dd00b104800001b0a10066
:102efc0001007000b00488000f0037008780a90023
:102f0c001e00900000f0a7000000ea000000e9009d
:102f1c004f00de00004078000080fb006100600084
:102f2c004c00dd00b104800001c0a1000100700064
:102f3c00b0048800000000000080fa0000000600c9
:102f4c000400fa00000f7800214798001e0078005a
:102f5c00e20f500024003200e20f500005003e004a
:102f6c000000e00008003200e10f500012003200b7
:102f7c0041003700e30f500027003200e40f5000ef
:102f8c00310032003c0037002e409000634060005e
:102f9c000080fb00630060004400dd00220880001c
:102fac00f1fc2f00810061000100700020088800f6
:102fbc0005e1a800300037002e409000634060000f
:102fcc000080fb00630060004400dd00820880008c
:102fdc00f1fc2f0081006100010070008008880066
:102fec0011e1a800240037002e40900063406000df
:102ffc000080fb00630060004400dd00920880004c
:10300c00f1fc2f0081006100010070009008880025
:10301c0013e1a800180037002e40900063406000b8
:10302c000080fb00630060004400dd00f2088000bb
:10303c00f1fc2f008100610001007000f008880095
:10304c001fe1a8000c0037002e4090006340600088
:10305c000080fb00630060004400dd00020980007a
:10306c00f1fc2f0081006100010070000009880054
:10307c0021e1a800000000000080fa00000006001a
:10308c002c00fa00881f7800101798002117980060
:10309c003217980043179800541798006000b80036
:1030ac00300798004107980000f02f00f1772400ba
:1030bc0050079800610798000000200001f82300d9
:1030cc00008fbe000040eb0040479800001020002d
:1030dc007007980060102000000f9800a0102000ce
:1030ec00100f980040112000200f98008011200034
:1030fc00300f980020102000400f9800c0102000c6
:10310c00500f9800e0102000600f9800a0112000d4
:10311c00700f9800c0112000001798001e1090002e
:10312c006a00b900000078008080e800a0802000d0
:10313c0000804000900078002e109000808f50008e
:10314c000c003a001e1090006a00b90000007800d4
:10315c00e4004000a0802000008040001000be0071
:10316c003e119000ce11900008f607000000e00020
:10317c00680032000040eb00404798004c003700dc
:10318c004e4090000080fb008000eb00fdf5070036
:10319c000001be00000020000110240084f607008e
:1031ac00008fbe0018c0b3000200200003282400ca
:1031bc001e00be00d6f507000000e00001003c0038
:1031cc000044eb000804e000030032000000200083
:1031dc0001382400008fbe002e1090000000e80083
:1031ec008000eb00e7f507000001be0000002000a6
:1031fc00a14724006ef607000001be003e109000af
:10320c00ce1090007ef507000268290083c12400cf
:10321c0033f607001e01be0079f507003007980051
:10322c004107980018c0b3005e019000ee019000b9
:10323c003e009000ce009000b3f507000000e000c7
:10324c00010034000044eb000804e0000b003200e5
:10325c003e009000ce009000aff507000001780012
:10326c001e1090006a00b9008000780020812000b8
:10327c000080400002087800100037004e4090009b
:10328c00e34f500007003a001e1090006a00b9008e
:10329c008000780020812000008040008080eb00be
:1032ac00010878004e4090000040e800404798002c
:1032bc004e409000e34f5000b1ff36001e109000be
:1032cc006a00b90080007800a080200000804000d7
:1032dc00ce409000014878001e1090006a00b900a2
:1032ec0080007800c0802000008040002e119000eb
:1032fc00020878001e1090006a00b9008000780067
:10330c00e0802000008040003e119000ce11900023
:10331c000288be001e109000000040000000470014
:10332c00700090008000eb00010878001e109000e7
:10333c000000400000004700400990001e10900063
:10334c006a00b90000007800e8004000a08020006e
:10335c00008040001000780000097800de1090001a
:10336c001e10900097fe07001e1090006a00b90016
:10337c0080007800a0802000008040001040780081
:10338c00804078001e109000edfe07004f0478007e
:10339c000080fa00000006000200fa000000eb00ba
:1033ac00000f7800200f8000000f7800e421ef0060
:1033bc001e0078000080fa00000006000200fa00ef
:1033cc000000eb00000f7800a00f8000000f7800c9
:1033dc00f421ef001e0078000080fa0000000600c7
:1033ec000200fa00000f78001e00780081432100d3
:1033fc00711898001e00780061442100012098008b
:10340c001e00780041452100112098001e00780014
:10341c0021462100212098001e007800a157210090
:10342c00312098001e007800816621004120980010
:10343c001e00780061842100712098001e00780025
:10344c00219d2100512098001e007800419e2100f2
:0c345c00612098000080fa0000000600cb
:020000040000fa
:10346800f03fb1000180b10006003500ee0309000d
:1034780000000000403fb1000180b100fbff3d00ab
:103488001000b000203fb0000200350000800900a5
:08349800000000000000060026
:020000040000fa
:1034a0000a0800005a0000000000000000080000a8
:1034b0000800000002000000000080003f00000043
:1034c000803f00000808000002000000000000002b
:0434d00000000000f8
:020000040000fa
:1034d4008200fa00fe18900010c1b3000100010040
:0c34e4000000eb000080fa000000060071
:020000040000fa
:0200000401f009
:04000000ffff0000fe
:020000040000fa
:0200000401f009
:04000400ffff0000fa
:020000040000fa
:0200000401f009
:04000800ffff0000f6
:020000040000fa
:0200000401f009
:04000c008000000070
:020000040000fa
:0200000401f009
:0400100043000000a9
:020000040000fa
:0200000401f009
:040014005f00000089
:020000040000fa
:0200000401f009
:04001800970000004d
:020000040000fa
:0200000401f009
:04001c00dfff000002
:00000001FF
